:020000040000FA
:100000000C9463000C9475000C9475000C947500AE
:100010000C9475000C9475000C9475000C9475008C
:100020000C9475000C9475000C9475000C9475007C
:100030000C9475000C9475000C9475000C9475006C
:100040000C94AE010C9475000C9475000C94750022
:100050000C9475000C9475000C9475000C9475004C
:100060000C9475000C94750000000000240027001B
:100070002A0000000000250028002B0000000000DE
:1000800023002600290004040404040404040202DA
:100090000202020203030303030302010204081025
:1000A0002040800102040810200102040810208072
:1000B0000000000800020100000304070000000027
:1000C00000000000000011241FBECFEFD8E0DEBF0B
:1000D000CDBF21E0A0E0B1E001C01D92A930B20780
:1000E000E1F70E94F8010C94E8020C9400008330C0
:1000F00081F028F4813099F08230A9F0089587309A
:10010000A9F08830C9F08430B1F4809180008F7DEF
:1001100003C0809180008F7780938000089584B51C
:100120008F7784BD089584B58F7DFBCF8091B0001B
:100130008F778093B00008958091B0008F7DF9CFC4
:10014000CF93DF93282F30E0F901E055FF4F8491E2
:10015000F901E556FF4FD491F901EA57FF4FC491D9
:10016000CC23A1F081110E947700EC2FF0E0EE0F7C
:10017000FF1FE458FF4FA591B491EC91ED2381E06E
:1001800090E009F480E0DF91CF91089580E090E065
:10019000FACF1F93CF93DF93282F30E0F901E0557A
:1001A000FF4F8491F901E556FF4FD491F901EA57C9
:1001B000FF4FC491CC23A9F0162F81110E94770024
:1001C000EC2FF0E0EE0FFF1FEE58FF4FA591B4911A
:1001D0008FB7F894EC91111108C0D095DE23DC9311
:1001E0008FBFDF91CF911F910895DE2BF8CFCF9372
:1001F000DF9390E0FC01E556FF4F24918A579F4F13
:10020000FC0184918823C9F090E0880F991FFC01BC
:10021000E859FF4FA591B491FC01EE58FF4FC591ED
:10022000D49161110DC09FB7F8948C9120958223D1
:100230008C938881282328839FBFDF91CF910895D5
:10024000623051F49FB7F8943C91822F80958323BC
:100250008C93E8812E2BEFCF8FB7F894EC912E2B57
:100260002C938FBFEACF3FB7F8948091050190910E
:100270000601A0910701B091080126B5A89B05C011
:100280002F3F19F00196A11DB11D3FBFBA2FA92F15
:10029000982F8827BC01CD01620F711D811D911D12
:1002A00043E0660F771F881F991F4A95D1F708957D
:1002B0008F929F92AF92BF92CF92DF92EF92FF9276
:1002C0006B017C010E9433014B015C01C114D1041C
:1002D000E104F104B9F00E943301681979098A092F
:1002E0009B09683E73408105910580F321E0C21AA5
:1002F000D108E108F10888EE880E83E0981EA11C61
:10030000B11CE4CFFF90EF90DF90CF90BF90AF9003
:100310009F908F90089583E00E94A000892B91F018
:1003200084E00E94A000892B81F085E00E94A0005B
:10033000892B71F088E00E94A000892B61F084EF86
:1003400091E008958CE291E0089586E990E00895A7
:1003500082E390E008958AE090E008951F920F9262
:100360000FB60F9211242F933F938F939F93AF93C8
:10037000BF938091010190910201A0910301B0917E
:1003800004013091000126E0230F2D3758F5029625
:10039000A11DB11D209300018093010190930201E2
:1003A000A0930301B093040180910501909106018F
:1003B000A0910701B09108010196A11DB11D809384
:1003C000050190930601A0930701B0930801BF9126
:1003D000AF919F918F913F912F910F900FBE0F90F2
:1003E0001F90189529E8230F0396A11DB11DD2CFA8
:1003F000789484B5826084BD84B5816084BD85B500
:10040000826085BD85B5816085BD80916E0081600B
:1004100080936E00109281008091810082608093B1
:1004200081008091810081608093810080918000B3
:100430008160809380008091B10084608093B100DE
:100440008091B00081608093B00080917A008460D8
:1004500080937A0080917A00826080937A00809104
:100460007A008E7F80937A0080917A0080688093F2
:100470007A001092C10061E08BE00E94F70061E019
:100480008CE00E94F70061E08DE00E94F70061E0DF
:1004900089E00E94F70061E08AE00E94F70061E0D5
:1004A00086E00E94F70060E083E00E94F70060E0D1
:1004B00084E00E94F70060E085E00E94F70062E0BF
:1004C00088E00E94F70084B1806C84B960E08BE022
:1004D0000E94C90060E08CE00E94C90060E08DE0ED
:1004E0000E94C90060E089E00E94C90060E08AE0E3
:1004F0000E94C90061E086E00E94C900C0E0D0E02F
:100500002F9A0E948B01BC0190E080E00E9458016C
:100510002E9A0E948B01BC0190E080E00E9458015D
:1005200061E08BE00E94C9000E948B01BC0190E059
:1005300080E00E94580161E08CE00E94C9000E94A6
:100540008B01BC0190E080E00E94580161E08DE0E9
:100550000E94C9000E948B01BC0190E080E00E94D3
:1005600058012F980E948B01BC0190E080E00E940E
:1005700058012E980E948B01BC0190E080E00E94FF
:10058000580160E08BE00E94C9000E948B01BC0111
:1005900090E080E00E94580160E08CE00E94C90079
:1005A0000E948B01BC0190E080E00E94580160E055
:1005B0008DE00E94C9000E948B01BC0190E080E0A8
:1005C0000E945801209709F49BCF0E94000098CF09
:0405D000F894FFCFCD
:107E00001F92CDB7DEB7112484B714BE982F9D7092
:107E100009F0D7D085E08093810082E08093C00094
:107E200088E18093C10086E08093C20082E2809363
:107E3000C4008EE0B1D0259A26E080E39CEF31E0CB
:107E4000909385008093840036BBB09BFECF1D9A33
:107E5000A8952150A9F7812C912C93E0F92EEE24BE
:107E6000E39425E0D22E31E1C32E8AD0813479F417
:107E700087D0898397D08981823811F482E005C048
:107E8000813811F486E001C083E073D06FC0823482
:107E900011F484E103C0853419F485E08BD066C009
:107EA000853541F46DD0882E6BD0912C982A880CA2
:107EB000991C5BC0863521F484E07CD080E0E5CF5E
:107EC000843609F036C05CD05BD0B82E59D0A82ECD
:107ED00000E011E055D0F80181938F01BE12FACF76
:107EE00061D0F5E4AF1201C0FFCFF401F7BEE89511
:107EF00007B600FCFDCFB401A0E0B1E02C911296D2
:107F0000AD0141505109FA01808130E0382BFB016D
:107F10000901E7BEE89511246E5F7F4FBA12EECFDC
:107F2000F401D7BEE89507B600FCFDCFC7BEE895C3
:107F30001DC0843769F424D023D0B82E21D032D08C
:107F40008401F80185918F0114D0BA94D1F70EC045
:107F5000853739F427D08EE10CD085E90AD08FE03F
:107F600094CF813511F488E017D01CD080E101D086
:107F70007CCF9091C00095FFFCCF8093C600089500
:107F80008091C00087FFFCCF8091C00084FD01C0BC
:107F9000A8958091C6000895E0E6F0E098E190830E
:107FA00080830895EDDF803219F088E0F5DFFFCFA0
:107FB00084E1DFCFCF93C82FE3DFC150E9F7CF9142
:0E7FC000F1CF282E80E0E8DFE0E0FF270994F3
:027FFE00020679
:00000001FF
