:200000000C94AE290C94230E18951895189518951895189518951895189518950C94FA2616
:200020001895189518951895189518951895189518951895189518950C94DD2618951895A7
:2000400018951895189518950C942128189518950C94F527189518951895189518951895DF
:200060001895189518951895189518951895189518951895189518951895189518951895B0
:20008000189518951895189518951895189518951895189518951895189518951895189590
:2000A0001895189518951895189518951895189518951895000000000000D5240A009023C8
:2000C0009823A023AC23BC23C423CE235A248F24BA2400917C00006400937C0000E8009312
:2000E0007A0000917A00026000937A00089500917A00006400937A0000917A0004FFFCCF1A
:2001000000917A00006100937A0000917800109179001370089500937C000AEF00000A957C
:20012000E9F70895E5E4F8E002E002830183008303E017C503E081D449D00CD00081009333
:200140008D0800E0008301E039D000918C08FFD4008132D0ECE8F8E0008103953AC00A0178
:200160001B01512F10E010938C0837D012E0AED4108333D0EBD4508360E010C070918C0874
:20018000072F29D0462F440F440F440F800191010E94372AF0E0E72F1BD06395651770F304
:2001A000E4D403E013D000918C0800938D0801E0D8D404D0009145080C94C72800938B0880
:2001C0000091C10000640093C1000895F0E0E22FC0D4008308950395C4C404D012E07AD4AF
:2001E000B8D410832AD4122F139510938C0808950E94F02C239780E04ED40031D1F59BD4C5
:2002000000E1B2D402E264D444E150E028E734E033D40C5E00830081102F13951083209143
:200220008C0481D420918D047ED420914A057BD420919D0478D420919E0475D42091A20366
:2002400072D42091A3036FD4209197046CD42091980469D42091CB0366D42091CC0363D438
:200260002091CD0360D42091CE035DD42091CF03B0C30A3439F412E0EBE4F5E0EED411D478
:200280000AE4D3C3003B39F412E0E3E0F5E0E5D408D400EBCAC3013B39F412E0EFE9F4E0D4
:2002A000DCD4FFD301EBC1C3A0E8B3E010918403013111F00231F1F4112309F0E5C00131BA
:2002C00019F400EF1AE005C0023109F0DDC008E610E1CCD4802F882309F4D6C0DCD301314D
:2002E00019F40C91016087C0023109F08DC00C91026081C0033121F0043111F00731B1F59A
:20030000112309F0C1C05E9A2A9A0091CD0304FD02C044E015D4BCD3033119F400E010E0A2
:2003200009C0043119F408EE13E004C0073121F40CE01EEF01D5802F2A985E980091CD0321
:2003400004FFFDD3882309F49FC0A5D3033119F40C91086050C0043119F40C9104604BC0A7
:20036000073109F051C00C91006145C0053111F0063109F5112309F087C05E9A299A88D342
:20038000053119F400ED17E004C0063121F400E117E23DD5802F29985E98882309F474C0F8
:2003A0007AD3053119F40C91006225C0063161F50C91006420C00B3411F00C3479F5112339
:2003C00009F062C00E946929BAD362D30B3419F400EE1EE206C00C3409F056C0E7E9F5E018
:2003E00042D46FD5802F882309F44EC054D30B3421F40C9100680C9307C00C3429F4119654
:200400000C9101600C9311974BD59D010EE428D411E04091BB0744D33ED307C30831C9F57E
:2004200021D391F119D381F19E012E5F3F4F1091C1070091C0071DD339F1A981B8819A81D5
:200440007AD308E130E082D390830AC08D01080F131F0E94EA07C6DE30E0F901B9DE83955D
:20046000891708F09AC200918403013079F7FD01B697EC3AF04030F08D010A5E1040063191
:20048000134020F700E0E7CF11E04FEF09D30FEFCCC20A3139F412E0E6E6F6E0DED301D344
:2004A0000AE1C3C20B3181F4DDD209F4BFC2D4D209F4BCC226E636E0C8D22AD502EDF4D25D
:2004C0004BE1EED20BE1B1C20C3141F412E0E6E6F6E042815381E5D20CE1A7C20D3191F464
:2004E000C1D209F4A3C2B8D209F4A0C2AED2E6E6F6E016D528E636E004EDD6D24DE1D0D284
:200500000DE193C20E3131F411E040916B06C8D20EE18BC20F3131F411E040918203C0D2ED
:200520000FE183C20F3331F411E040918303B8D20FE37BC2003239F412E0EAEDF3E08DD3C3
:20054000B0D200E272C2043249F40E94131EB12F12E0402F5B2FA5D204E267C2053231F410
:2005600012E05ED37AD39DD205E25FC2063239F412E0E1E5F7E071D394D206E256C20732BD
:2005800099F4112309F052C26DD209F44FC264D209F44CC25AD2E1E5F7E0CBD304EE58D27C
:2005A00047E27ED207E241C2013269F4C6D2C5D2C4D27CD201E000DE79D203E0FDDD01E08B
:2005C0000E94D227FFCF033221F401E00E94881E2DC20D3239F40E94AB1311E04DE260D232
:2005E0000DE223C2003339F48093850311E040E357D200E31AC2013341F401E000938503CB
:2006000011E041E34DD201E310C2023341F402E00093850311E042E343D202E306C203337B
:2006200031F403E00093850339D203E3FEC10A3379F481D20AE39FD22091910474D220914F
:20064000920471D220918E046ED220918F04C1C10B3341F401E00093860311E04BE320D2F7
:200660000BE3E3C10C3339F48093860311E04CE317D20CE3DAC10D3341F401E000938703DA
:2006800011E04DE30DD20DE3D0C10E3339F48093870311E04EE304D20EE3C7C1003439F4FC
:2006A00012E0E9E4F7E0D9D2FCD100E4BEC1013499F4112309F0BAC1D5D109F4B7C1CCD1A7
:2006C00009F4B4C1C2D1E9E4F7E033D308EDC0D141E4E6D101E4A9C1023439F412E0EBE496
:2006E000F7E0BBD2DED102E4A0C1033499F4112309F09CC1B7D109F499C1AED109F496C1A0
:20070000A4D1EBE4F7E015D30AEDA2D143E4C8D103E48BC1043439F412E0EDE4F7E09DD20B
:20072000C0D104E482C1053499F4112309F07EC199D109F47BC190D109F478C186D1EDE469
:20074000F7E0F7D20CED84D145E4AAD105E46DC1063439F412E0EFE4F7E07FD2A2D106E43F
:2007600064C1073499F4112309F060C17BD109F45DC172D109F45AC168D1EFE4F7E0D9D2EE
:200780000EED66D147E48CD107E44FC10035B1F401E00093840300913E07002351F401E0B0
:2007A00000933E0741E050E02EE337E00DEC11E058D211E040E574D100E537C10135A9F4C9
:2007C00051D109F433C148D109F430C13ED1EEE5F6E038D20217130709F028C1809384038E
:2007E00011E041E55DD101E520C1063339F412E0E1EFF4E032D255D106E317C1073329F5AE
:200800009AD107E3B5D193D1E8E6F5E06DD165D1ACD1EDE6F5E079D120916F0584D1E0E7D2
:20082000F5E062D180D1209175057DD1209176057AD12091770577D12091780574D12091D6
:20084000790571D120917A05C4C0083389F573D108E38ED18AD1E4E9F5E057D1209196056C
:200860005FD12091AA055FD12091AB055CD12091AC0559D12091AD0530D177D1EEEAF5E045
:2008800044D12091B00529D170D1E1EBF5E03DD12091B30548D12091B40545D12091B50586
:2008A0001CD163D1E6EBF5E030D12091B80591C0093361F540D109E357D10DE05ED120912D
:2008C000BE0531D12091BF052ED12091C0052BD12091C10528D12091C20525D12091C30516
:2008E00022D12091C4051FD12091C5051CD12091C60519D12091C70516D12091C80513D107
:200900002091C90510D12091CA0563C00834A9F412D108E429D101E0DBD00D911C910F3F0D
:2009200011408BD0022F29F456DC01E0CFD0008334C051DCCBD0808330C0003671F4FBD073
:2009400000E60AD10CE813E0BAD00CE813E078D020F5AED02481C4D0F8CF013671F4EBD04C
:2009600001E6FAD008E813E0AAD008E813E068D0A0F49ED02081B4D0F8CF023681F4DBD008
:2009800002E6EAD001E913E09AD003C091D02185A7D001E913E054D0C8F3CCDB47C003368A
:2009A00019F47CD003E641C0003FA9F4C4D000EFDBD006E0E2D02091AB05B5D02091AA050C
:2009C000AFD02091CE05AFD02091CD05ACD02091CB0583D0E2CF003779F4ADD000E7CBD06E
:2009E0002091F304A0D02091F4049DD0209107059AD020910805EDCF023F61F49CD002EF35
:200A0000B3D003E365D043E350E02CED33E034D00D5C8DCF043651F40EE1E6EAF3E0008359
:200A2000818311E044E63CD004E699DB00E00093BB072396E4E00C94012D20918C080895CB
:200A40000E944C2D80179107089509811881089511E007D111E008959E011091BF07009101
:200A6000BE0707C09E012F5F3F4F1091BD070091BC0759D20023089560918C0805E418E025
:200A8000060F151F0E940C2DECE8F8E0008108950AEF0E94E8270091BB07089511E043E3B7
:200AA00050E060E070E0089510E0D3CF01E284CB3ED0FC01E857FC4F089521D038C00E9458
:200AC0004C2D90E0FC0184DB80E0089503D041C001D07ECBE22FF0E0089539D0208308951F
:200AE00036D0208383950895208109D016D0E5DF2281E3DF438124812AD0408318C0B0E081
:200B00000B5BA02FB74F2C9308950081B0E02B5BA22FB74F0C9301D006C009D02181089582
:200B200002D02091A905F0E0E02F13D0208300918C08102F59CBF6DA18C002E03DCB40E0E5
:200B400050E021E030E002E00C94F80716D0F0E0E02FEB5BF74F089539DB80918C08082FF5
:200B6000039500938C0808950AD067DF022FF8CFFBDF03E1ADCFF8DF04E001D0D8CFE22F83
:200B8000F0E026CBBA93AA9300E04AD00083018358D044E0049FA00162E0169FECE6F6E0DA
:200BA00047D0E4E7F6E044D013951230A8F350D0023070F300E045D044E0049F99D042E0E8
:200BC000149F98D04AD0240F351F13951230A0F33FD00A3080F3A2E9B7E0E4EAF6E043D047
:200BE00022D0EAE9F7E031D0ECE9F7E02ED02D913C911197020F131FFD0115D011D022D082
:200C0000200F311F208331834BD19F010CE347D122EA37E00EE324D0A895A991B9910895D5
:200C2000E2EAF7E0089522813381020F131F0895E40FF51FE00DF11D60817181260F371FDD
:200C4000089510E020813181089520813181EDCFE7DF208331830395089540815181089586
:200C600012E00C94CE07008111810895C6D06497D80180E00AC0082F0E944017FE0122E098
:200C8000829F38D0C1D0A895839537D0A0F3E4EAF6E0A0380CE0B00778F4A083B18380E069
:200CA0002CD008F533D0B0D023D043D00AE0A7D0920100E126D0F4CFA283B38380E011C098
:200CC00025D0FCD02CE736E0200D311DF90128D12E5F3F4F0CE093D0440E551E920102E117
:200CE00010D00BD068F311D16496E6E00C94FF2CECE7F6E0E00DF11D08950091A005801763
:200D0000089512E00A0F1B1FACDFECCEFE0102E0809FE00DF11D0081118124E0829FD001A8
:200D200026E6422E27E0400C211D522EE42DF22F0895EFD09F01089560D02801A8950E9423
:200D40004E1AAEE5B7E084E796E0242D252999F4FC015AD000E004830583A2D09C0102E0ED
:200D600011E0A1D008E09BD028E736E006E011E08DD00CE03FC028EE421623E05206A9F414
:200D8000FC019CD008EE068327838AD026E736E004E011E0C1D020E637E00AE080D02AE776
:200DA00036E008E068D00EE025C02CE042162EEF520609F5EAE9F7E027D00CE0ECE9F7E01A
:200DC000008321836DD02AE937E000E449DFEAE9F7E049DFEEE9F7E0ACDF04E460D02CE941
:200DE00037E002E43DDFECE9F7E03DDFE0EAF7E0A0DF06E435DF89D078CF0C94EE2C11E0A9
:200E0000000D111D2EDF4CC0008311830895F5DF2801A8950E946218A6E5B7E08CE696E06A
:200E200029EB42162BE05206FC0188F4EDDF4482558236D09C010AEF10E035D000E02FD091
:200E400020E736E00EEF10E021D004E012C036D04682578225D02EE636E00CEF10E05CD004
:200E600028E537E002E01BD022E736E000E003D006E04AD03ACF11E01ED006811781FD01AA
:200E8000068317830DD016969D01089514D004811581FD010483158303D01496F5CFE0DE50
:200EA00042E050E0089507D0008111810D931C931197F6DFE9CFD5DEFC010895028313836D
:200EC00008950E94F02CC801A8950E94221B22E937E0A6E9B7E0813E9E4248F40D931C9360
:200EE000119716D002E5DBDF9D0106E50BC0FD01E5DFF90115D024E937E004E5D0DF12966A
:200F00009D0108E501D096CDABDE3CDE01E00895F90100831183C4CFCEDF02811381FD018B
:200F200002831383BDCF402F40534A3058F0402F4154463010F4075305C0402F415646302D
:200F4000D0F407550295007FF9010083012F00530A3028F410530081010F0083D7CF012FB8
:200F60000154063010F41753F6CF012F0156063010F41755F0CF00E00895F8010A0160E006
:200F800070E008C0A895A9010E94CA2901932F5F3F4F639560157105A8F308950E94EC2C38
:200FA000C801D9012A01662406C0A8952D918C0109D001966394772464147504B0F3E8E02D
:200FC0000C94FD2CF999FECF12BD01BD20BDFA9AF99A0895F999FECF12BD01BDF89A00B588
:200FE000089504E20093B80000E00093B9000895192F682F04EA94D001C001978AD007FD72
:2010000002C084D0D1F788D001C0019782D007FD02C07CD0D1F769D0C1F42093BB007FD06A
:2010200001C0019776D007FD02C070D0D1F764D061F44093BB0073D001C001976AD007FD52
:2010400002C064D0D1F758D019F059D008E002C059D000E0862F912F0895192F682F04EAE6
:201060005FD001C0019755D007FD02C04FD0D1F753D001C001974DD007FD02C047D0D1F7D8
:2010800034D009F52093BB004AD001C0019741D007FD02C03BD0D1F72FD0A9F404EA40D029
:2010A00001C0019736D007FD02C030D0D1F701E234D001C001972DD007FD02C027D0D1F781
:2010C00017D0003419F01BD008E00EC028D001C001971FD007FD02C019D0D1F70091BB0048
:2010E000FA0100830FD000E0B5CF02D0083108950091B900087F0895FBDF0832089501E087
:201100000093D90304E90093BC000895082F092B08950091BC00089500E20093BB0004E879
:201120000093BC008FEF9FEF08950E94EE2C2197502EC901DA01AE0190DF002369F003E0A3
:20114000402EAE019C01052D88DF002329F0DADF4A94B9F708E004C00881FD01008300E023
:201160002196E6E00C94FF2C0E94B80E0E94F10703E310E00E94BC280E9469000E944E27A7
:201180000E94A5270C94582759D05DD062E0169FECE6F6E05DD0E4E7F6E063D0B8F3039589
:2011A000023098F300E010E044E0049FECE7F6E05CD0D0F303950A30B0F3A2E9B7E0E4EADE
:2011C000F6E02AD00FD224D00AD22CC037D03BD062E0169FE6E5F7E03BD0EEE5F7E041D031
:2011E000B8F30395023098F300E010E044E0049FE6E6F7E03AD0D0F303950A30B0F3A6E9E4
:20120000B7E0EEE8F7E008D0E7D102D0E2D10AC0F1D3200F311F0895EDD3200F311F028109
:201220001381F7CFF5DF0D911C911197F2DFFD0102811381020F131FD10108951D0120E0D7
:2012400030E000E0089510E044E0049FA0010895E40FF51FE00DF11D60817181260F371FAC
:201260000895F6DF139512300895E00DF11D42E0149FE00DF11DB6D4F5CF0E94F02C80E03E
:20128000839546E050E022ED30E006E616E098D142E150E028ED30E00BE715E097D12AEF96
:2012A00030E00CE616E092D122E031E004E716E089D12AE031E00CE716E09CD122E331E0FE
:2012C00004EA16E07DD14CE450E027E331E008EA16E076D140E150E023E831E004EF16E0DC
:2012E0006FD146E050E023E931E004E017E068D144E150E029E931E00AE017E061D140E27A
:2013000050E02DEA31E00EE117E05AD14AE050E02EEC31E00FE317E059D120E032E006E5CF
:2013200017E054D128E032E00EE517E04BD120E132E006E617E05ED128E332E00EE817E042
:2013400059D122E532E002E917E054D126E532E006E917E035D142E050E024EE31E001E5DF
:2013600017E02ED140E408D13DD138D342E404D136D134D34DECFBD000933E0748EDFAD07D
:20138000E9E4F7E02BD34AEDF5D0EBE4F7E026D34CEDF0D0EDE4F7E021D34EEDEBD0EFE4B2
:2013A000F7E01CD340EEE6D0E3E5F7E017D342EEDED00093550744E4DFD00ED10FD346E46B
:2013C000DBD007D10BD34CE3D7D0E2EAF7E006D34EE3D2D0C4D002D34EE4CED0E0E8F3E0B3
:2013E000FDD2D2DED801F2DE980102D3012B21F000810F3F1F4F29F4A083B1838D014CE3AC
:201400000CC0ADD0F7D2012B21F000810F3F1F4F29F4A083B1838D014EE3B5D0E9D2A01716
:20142000B1079DD0E7D209F456C02017310709F08BC0C2D00CE616E095D0BAD00AEF10E0B6
:2014400094D0B2D004E716E08DD0AAD002E011E08CD0A1D00CE716E085D098D00AE011E0CD
:2014600084D0D7D004EA16E07DD0CFD002E311E07CD0C7D002E917E075D0BFD002E574D007
:20148000ABD0B8D2AFD0B1D000E412E06ED0A1D0B1D2A5D0AAD002E412E067D060D0AAD295
:2014A000E2EAF7E0A2D00CE312E05FD000913A07003231F40E94C5214AE461D04AE463D096
:2014C000823041F400913A0705FD04C048E457D048E459D084C32017310741F369D006E5D7
:2014E00017E040D069D000E03FD05AD00EE517E039D05AD008E038D049D006E617E032D088
:201500004AD000E131D081D00EE817E02BD081D008E32AD072D006E917E024D072D006E517
:2015200023D060D067D258D060D004E412E01DD056D060D24ED059D006E412E016D058D2A5
:201540000ED053D00EE3B0CF813009F499CEECECF3E00081006200830E94D221B1CFE4EA11
:20156000F7E008950C940C2D12E00C94CE0751E00C94CA2951E001C052E00C94CD29FCDF5E
:201580000F5F1F4F089552E00C94DB2948E250E02CE736E0089548E250E026E637E00895C2
:2015A00016D024E736E0089512D02EE537E008950ED02CE636E008950AD026E537E00895A2
:2015C0000C94BD07FDDF48E250E00895F9DF48E0FBCFE0EAF7E00895EEE9F7E00895ECE9AC
:2015E000F7E00895EAE9F7E00895F8D142E050E09F010895E5DF44E0E7CFFDDF22E937E03C
:201600000895F9DF26E937E00895F5DF24EA36E00895F1DF2EE837E00895BA93AA9300E0F9
:201620000093A9070093AA07E8E6F5E00AE910E1D5D103E0028304E003831483E0E7F5E0F1
:2016400000EF1AE0CBD1128300E11EE003831483EDE8F5E0C1D108ECBBD104E1048300EA62
:201660001FE005831683E1EDF5E00CED15E0B6D112830EE10383E6EBF5E008EB1BE0B5D10E
:20168000EDE6F5E0A9D10AE00283E9EBF5E004E911E1ABD1EEEAF5E008E91AE3A2D1E1EBDB
:2016A000F5E000E21EE49AD100E315E7ACEBB5E00D931C9305E00283E5E7F5E00DE200832F
:2016C00000E0018303E00283E8E7F5E006E400830BEF018303E00283E4E9F5E000E0028340
:2016E00004EA11E07BD1E5EDF5E076D102E370D1E9EDF5E004E51BE074D10093DC05EDED89
:20170000F5E00EEF10E171D105E50093E0050AE00093E105EDE9F5E00FEB008301E401836E
:201720000FE0028308E20093AC0504E60093AD0505E00093BE050093BF050093C00503E00B
:201740000093C10505E00093C2050093C3050093C4050093C5050093C6050093C70500938D
:20176000C8050093C90501E00093CA050CE211E0E6EAF3E033D1E3EFF5E008E410E02ED1F0
:2017800002E927D10EEE21D109E711E01AD10DEE12E014D10CE713E00DD10EE610E007D15A
:2017A00000E502D10CE3FDD008E2F7D0148B158B0CEE1FEFEFD0EBE0F6E000E0008304E115
:2017C00001830CE3028301E913E0EEE5F6E006D105E00093A105E9EAF5E003E2028302E39F
:2017E000018300E5008307E30093CE050CE30093CD050DE40093CB0508E719E6E4EBF5E073
:20180000EDD00DE40093CC0509E00093A00508E518E9E7E9F5E0E2D0E6E1F6E000EA1EE0CB
:20182000DDD002EE1DE0D5D002E7CFD00FED1CE0C8D003EDC2D008E6BDD007E0B8D00BE7F3
:201840001DE0B2D003EDACD00EE5A7D00FEE1DE0048B158B05E19ED0EEE2F6E002EFBED091
:2018600000E3B7D008ECB0D001E6ABD001E2A5D00EEA1DE09FD00CE49AD004ED1CE094D0C1
:2018800009E18ED00AEA1DE088D005E4048B158B0FE81CE07FD0E6E4F6E002EE9FD009E471
:2018A00098D00CEF1BE091D007EC8BD00CEB1CE085D008E97FD006E57AD009E075D004EA42
:2018C00070D007E66AD009E4048B158B0EED1BE061D0EEE0F6E008E512E080D008EB1BE09D
:2018E00078D000E717E171D000EE1EE26AD0E0E6F6E006ED1EE072D003E26BD00CE964D040
:20190000E2EEF5E00AE069D008E111E062D004E71EE0058316830AE01FE0078310870CE7EC
:2019200011E0018712870CE20387148700E00587068708E017E00787108B04E104839DDC9C
:2019400000913A070093CC0300913E07002319F001E0009384030091CC03002359F40E94E4
:2019600010170E9464160E9450170E9474180E944F260CC0087151F0EDE4F7E03BD00F3F4F
:201980002FEF120719F0012B09F05F9A36D0A991B9910895068B178B0895028B138B08952A
:2019A0001EE0008B118B08950687178708950487158708950287138708951EE000871187FC
:2019C00008950683178308951CE004831583089510E002831383089500EA1FE0008311834A
:2019E0000895FCDF0EE102830895F8DF05E0FBCFE2EAF7E00081118108950E94F02CE8E6F9
:201A0000F5E02081318119D1EDE6F5E011D1E0E7F5E0FEDB12D1E5E7F5E0F7D00AD1E8E7C0
:201A2000F5E0F3D006D1E4E9F5E002D1E9EAF5E0E3D00091AC05EDDB0091AD05EADBEEEA7D
:201A4000F5E0F6D0E1EBF5E0F3D0E4EBF5E0E0DBE6EBF5E0EDD00091BE05DBDB0091BF0566
:201A6000D8DB0091C005D5DB0091C105D2DB0091C205CFDB0091C305CCDB0091C405C9DBA9
:201A80000091C505C6DB0091C605C3DB0091C705C0DB0091C805BDDB0091C905BADB0091DD
:201AA000CA05B7DB0091CB05B4DB0091CD05B1DBEDE9F5E0A1D00091A005ABDBE1EDF5E06B
:201AC000B7D00381A6DBEDE8F5E09CD0B4D0058116819FDBE5EDF5E09FDBE9EDF5E0A8D005
:201AE0000091DC0596DBEDEDF5E0A2D00091E00581D00091E1059FD0E2EEF5E08DDB0581A2
:201B0000168187DB0781108584DB0185128581DB038514857EDB058516857BDB07851089BD
:201B200078DB048188D063D08C01000F111FE3EFF5E0E00FF11F6CDB048515856ADB01968A
:201B4000863000E0900780F352D0FC01E55FF94F008150D00196833000E09007B0F347D01E
:201B60008C01000F111FF801E25FF94F51DB0196843000E09007A0F360E070E038D043E0DB
:201B80008B010E94E429AC01440F551FE6E1F6E044D0EEE2F6E041D0E6E4F6E044D022D088
:201BA0000196843040E0940770F36F5F7F4F6330740720F3E0E6F6E0AEE5B6E00D911C91EF
:201BC00028DB20D0158125DBE7E9F5E021DB0091A105200F341FEAEDF3E020833183E4E05D
:201BE0000C94012D40815181240F351F089580E090E008950ED00DCB00810BDB018109DB70
:201C0000028107CB09DB04810895008102D001DB0181102F110F110B089505D000801180BA
:201C2000200D311D0895E00FF11FE40FF51F0895E1DEEFDA028110E0ECCA028110E0E9DA02
:201C400003811481E6CA8A93FA93EA933A922A921A920A927A936A935A934A933A932A9366
:201C60001A930A938FB7E89802E000936900E09A009180000F7D009380002A980E9472294D
:201C80006AD00064008300918F080370B9F00091CE0303FD0EC0EBE7F5E0048515850F5F77
:201CA0001F4F0487158742E050E027E835E004EE4FD0EEECF3E000810860008300918F08C7
:201CC00002FF1AC00091CB0300FD13C0EAE0F7E046D020E137E00FE911E03BD00091CD03D6
:201CE00001FF07C0EBE7F5E03AD021E835E00EED2FD031D00160008300918F0803FF16C06F
:201D00000091CB0301FD0FC0EAE0F7E0008511850F5F1F4F0087118742E050E022E137E074
:201D200001EA11E016D017D002600083E89A8FBF09911991299139914991599169917991B5
:201D40000990199029903990E991F9918991189510E00C94CE07EBECF3E000810895068140
:201D600017810F5F1F4F0683178342E050E008950EEF04B906E007B902EC0AB900E00DB926
:201D800001E005B902E408B90BB900E00EB902E000936900E89A0895AD012497E4EBF0E08D
:201DA0000591159125913491088319832A833B8300918503013029F4D7D00D7F008301605C
:201DC0000BC0023029F4D0D00E7F0083026004C0033021F4C9D003600083ABC00BB10863BA
:201DE0000BB906EA0A95F1F700C0BAD020E030E0FE01E20FF31F4D9903C01081146010830B
:201E00004C9903C01081126010834B9903C010811160108313E01A95F1F7000023952330B3
:201E200038F318812981122B2A81122B1B8315D112FF1EC00330C1F0118D1395118F0023AF
:201E400019F40091C00504C0013029F40091C305101750F006C0023039F40091C6051017A5
:201E600018F07AD003600C93368B378B308F5EC011FF1FC00230D1F0108D1395108F0023C5
:201E800019F40091BF0504C0013029F40091C205101760F006C0033049F40091C905101743
:201EA00028F05AD00E7F0C9302600C93368B378B3CC010FF1EC00130D1F017891395178B6B
:201EC000002319F40091BE0504C0023029F40091C505101760F006C0033049F40091C80505
:201EE000101728F039D00D7F0C9301600C93368B1BC00023C1F016891395168B013019F4D9
:201F00000091C10504C0023029F40091C405101750F006C0033039F40091C705101718F0E4
:201F20001BD00C7F0C93378B308F318F0BB1077C0BB993D015D051F05E9A0189013019F003
:201F40000289013031F401E0038B03C000E0038B5E982496DA010895AFECB3E00C91089570
:201F60000091CF0303700895EFECF3E000810895592F682F0091CF0310918603113011F430
:201F800011E007C0189B03C010E0077F02C011E0086063D017872685122F80819181402F43
:201FA0004370222339F04423A1F410E093D3148715870FC0278520FF0BC00196268137811C
:201FC0008217930730F011E02CE22683178301C081D3808391831687148D2685442301F1FE
:201FE00031893323E9F433893323D1F4222389F01395153058F010E0458944FB40E040F9D4
:2020000031E0432740FB358934F9358B3589377F0AC015891F7E158B1860158B10E004C07A
:2020200010E03589377E358B148F84859585222349F004608C3D15E0910710F011E005C0C9
:20204000019602C00B7F46D310E084879587148B0093CF03862F952F0895E0EAF3E0089519
:202060000E94E82CD901CA012B012417350711F48B010EC058D38D010ED03CD048015901BD
:202080008A1B9B0B8C0107D045D00C851D853AD0EEE00C94F92C5BD3A801B9018401950100
:2020A00008950E94E92C612EA22E2A014B01121711F48A011CC0102F1FD0FFD2062D162DEC
:2020C0001BD003D317D0F9D20A2DAA0CAA08762C770C77080619A7081A2DAA0CAA082A2D76
:2020E0003A2D0E94BF2AF1D215D084010BD0EBE00C94FA2C0C94622B110F110B212F312F3C
:202100000C94BF2A1FD30E947F2BA201B301D8D20C94CC2A0E94F82BD0D2820118D3280163
:202120003901AC01BD0100E010E020E83FE3E2DFA201B3010E947F2B28013901089589D043
:202140000ED026E136E04CD006E116E07FC081D006D02EE236E044D00EE216E077C0D801F5
:20216000F801028112E0019F10010381019F33D043E00C94E429020F131F228132E0239F8F
:202180009001438152E0459FF801E00DF11D51D05A934A93020F131FF80147D0F9013CD09C
:2021A000B801AC013FD0F801E55FF94F208113D0F801E55FF94F108100914A0572DFC80191
:2021C0004CDF048115818017910710F001E001C000E0E6E008950C91102F110F110B0895F0
:2021E000200F311FE5E9F4E040805180E7E9F4E0E6D0400E511EF901E00DF11DE0D01A93C4
:202200000A93220D331DF90110D0F10105D0C80109D0AEDF98010895E25FF94F20813181C0
:2022200082011ECFFD010181D7CF06D0F001E25FF94F40815181089560817181089509D03F
:202240008EDF26E436E0CCDF06E416E094DF0C94FF2C0C94EE2CFDDFA0EAB3E0FD014280B5
:202260005380E7E9F4E0ABD0400E511E8091B003A20120914A050DEB13E034D0882311F0AD
:20228000843048F00DEB13E05ADF002311F083E004C084E011C0833039F40DEB13E057DFAD
:2022A000002351F082E002C0823031F45D968D01C6DF002309F081E00091B003002311F0B4
:2022C000801770F4EEEAF5E07AD0E6EBF5E020813181020F131F0415150510F08093B003D7
:2022E000E6E0B5CF3B2F2A2ED80100910B06021714F000E005C000910D0620172CF002E0BC
:202300000C93EA2FF12F0CC001E0F0E0E02FE55FF94F1081121734F0102F1A951C93FD0154
:20232000018303C00395033080F3EEE0F6E047D00417150710F000E006C00681178140170A
:20234000510720F003E0FD0102830EC001E012E0019FEEE0F6E0ABD16FDF6417750730F0E9
:20236000102F1A95FD011283038303C00395043070F3A22DB32F0895AD01E0E6F6E01FD0DD
:20238000A1E9B4E02D913C9117D010F404E00DC00281138111D010F403E007C00481158137
:2023A0000BD010F402E001C001E01091B003011710F40093B003CECD021713070895008118
:2023C00011810895002359F00A9549F00A9571F00A9561F00A9589F00A9579F016C01BD0B9
:2023E00071F020D00C7F058B046006C014D039F019D00E7F058B06608BC10DD019F412D0B6
:202400000260FACF0FD00760F7CF09D011F40D7FF3CF087FF1CF0091A00505300895009179
:20242000A00505301ADE058908950E94E62C0FE0C02E04E0D02E009173040395053008F05F
:2024400000E00093730490DD0F70008370907604F601808191810091B1030130A9F40091FB
:20246000CD0302FF11C000917104093750F4D7DF11F4026001C00760058B76DD0064008321
:2024800001C043D12AD115C00091CD0301FF15C004E00093B0030091720402D121F40395B0
:2024A000083008F000E0009372048CDF16D188EB9BE0772400937704DDC052DD09F4C3C0CE
:2024C0000091B303002309F0BEC00091770403950A3008F000E00093770400917404043119
:2024E00010F4039501C004E1009374042091770402E0209F8601000D111DE5E9F4E099DEE7
:20250000F80142835383E1E9F4E093DEF801428F538F222309F050C0F6010281138107D138
:20252000C3D00281138108D1D8F302E0709E4601800C911C02E3800E00E0901ED2D00083B7
:202540001183F601028D138DF2D0AED0028D138DF3D0D8F3C6D0008F118F73940091CA0598
:20256000701650F1F601D6D0A8D0662403C09CD0D1D0A0D08CD0D8F310E0D5D0A6D0A2D011
:20258000B8D0E9E5F4E0E2D098D0662405C08CD0E65BFF4FDBD08ED07AD0C8F3A401B50154
:2025A0008C019D018FD059DD04831583772400917404043108F04FDE0091CF031091B00387
:2025C000143031F4006468D091F097D0176030C0133041F4006360D051F08FD01E7F158BBF
:2025E000166026C0123049F4006256D019F485D012601EC085D014601BC0113099F40061F3
:202600004BD041F44DD0A9F428DD258921FB85D011F90EC075D044D061F4258922FB7DD0EE
:2026200012F906C039D069D011F41D7F01C0187F158B0093CF0303E00093720401E0009329
:20264000750448D01BC061D000E000937404009373040093720400917504002351F0883BAE
:202660000BE0900708F40196883B900718F035D001C082DEE5E9F4E0A2DE3BD0EFE0F4E0ED
:202680008083918370927604EEE00C94F72C63940091CA05601608951091A0051530089584
:2026A000109173041123089502E0609EF601E00DF11D0895AC01BD0103D0C801D901089544
:2026C0000C941E2B0E94F82B23CDA801B9018C019D01089580E090E0089500E000937504D8
:2026E000089540E050E060E271E4082FEBDFF4010895B3DC028313830895AFDC15890895B6
:20270000ACDC15891C7F158B0895A7DC0589087F058B089502A913A91AC020E020F911E0AB
:20272000212720FBEBCF13D04801590108950FD0C4DF66246394089505D0C2DFBEDF6394AF
:202740000AE0A8CF04D0AC01BD01089538DE20E030E00C94CA2A0E94E82C88ED90E08BD08C
:202760008A3E00E09007D8F383E991E084D08D3C01E09007D8F300E0E3E5F7E0008301838C
:202780005DD19F0100EE40D180E002E0809FA8EAB6E0A00DB11D00E00D930C93119708E8B1
:2027A00013E1FD01048B158B07E3402E01E0400C011D502E43D19D0182013FD154969D010A
:2027C00004E1040D551E152DF9D083958A30E8F280E004EF802E06E0902E02E0809FD00162
:2027E00008EAA02E06E0A00C011DB02E2A2D205D0F4F302F00E0F90100830183028B038BFE
:202800002401400C511CF2010683078307E3602E01E0600C011D702E11D18301005D1F4F22
:202820000CD102E4A00EB51E9501060D751E172D04D106E0400E551E920109E811E00A0FCA
:202840001B1FBCD08395853040F200E00093F4060DE20093F50600E00093CC03A8D094017A
:20286000A9D0A5D0840E951E940104E8A4D05F98ECE00C94F92C20E08C010E94E2070196F9
:20288000089504B703FF0AC0E8D07CD104B7077F04BFD4D024E137E003EAB6D004B702FF1C
:2028A0000AC0DBD069D104B70B7F04BFC7D026E137E005EAA9D004B701FF0AC0CED056D1FA
:2028C00004B70D7F04BFBAD028E137E007EA9CD004B700FF0EC0C1D0008911890ED1008B41
:2028E000118B04B70E7F04BFA9D02AE137E009EA8BD0089502D03CD063C00E94EC2C442488
:2029000002E0409EA8E7B4E0A00DB11D0D911C91119787E391E0800D911D28EA622E26E0A8
:20292000600C211D722EE62DF22F208131812017310728F40083118381D0930117D00D91BA
:202940001C91F3012489358975D048F4048B158B75D004E1600E751E9301449607D0439474
:202960000AE0401668F2E8E00C94FD2C8C0126C09A938A9384EF96E00091F40610914A050B
:2029800001172CF41093F40612D09C0113D000914A051091F50601173CF40093F50607D0D7
:2029A00001969C0104E807D089919991089541E050E0089503E811E001C011E00C94CE074E
:2029C000BA93AA93A4E0B7E00D911C911197E3E9F4E02ED038F42D933C9311972FD09D01C1
:2029E00003E912D0FD0104811581E7E9F4E020D040F4FD012483358321D014969D0107E9A2
:202A000003D0A991B991089511E0D8CFE4E0F7E002811381E5E9F4E00BD048F4E4E0F7E024
:202A2000228333830BD026E037E005E9EDDF089520813181021713070895C0DF42E0B8CF81
:202A40000FD05ED00AD00289138957D0028B138BF5DF2CE137E00BEAB0CFEAE0F7E008956C
:202A600028EA36E0F90106A517A5EEE8F4E04081518140D0F90150F400AD11AD3ED000AF1A
:202A800011AFDCDF20EE36E00FE60DC004A515A531D050F406A917A930D006AB17ABCEDF9E
:202AA0002EED36E00DE689CF02A513A523D050F404A915A922D004AB15ABC0DF2CED36E06A
:202AC0000BE6F1CF00A511A515D050F402A913A914D002AB13ABB2DF2AED36E009E6E3CFAC
:202AE00000A911A90AD000AB11ABA8DF28ED36E007E6D9CF0417150708950F5F1F4F08959E
:202B0000E4EFF6E0058110914A05011734F42ED095DF3E969F0101E908C00481011734F4F9
:202B20002BD08CDF3C969F010FE847CF0381011734F428D083DF3A969F010DE8F6CF0281E5
:202B4000011754F400851185D8DF0087118776DF38969F010BE8E9CF06811781CEDF068361
:202B600017836CDF36969F0109E8DFCF06851785C4DF06871787089504851585BEDF048788
:202B80001587089502851385B8DF028713870895E8EEF6E000811181EEE8F4E049DF28F4D9
:202BA000E2EFF6E027D001E808C0E6EEF6E01FD028F4E0EFF6E01ED00FE7FFCEE4EEF6E013
:202BC00016D028F4EEEEF6E015D00DE7F6CFE8EAF6E002AD13AD2EDF28F4ECEEF6E00AD0D9
:202BE0000BE7EBCFEAEEF6E005D009E7E6CF0081118120CF0081118180DF0083118342E054
:202C000050E09F0108958A9380E055D011F44ED002C080933F0845D00E94B40809E00E9468
:202C2000D227082F8395033020F40E94CE280023C1F30E940D0B0E9441140E94BC110091E5
:202C400053070093A80700915507002329F0EDECF3E00081046000837894EAEAF7E0008163
:202C600000FF05C00E7F0083A8950E94842300918B08002391F70091BA07013071F701E05F
:202C800000938E0800E00093BA070E94F800E5CF00914108013021F00ED011F407D001D0E2
:202CA000089500913F080093660008954DE409D000933F0808954CE404D000934108013077
:202CC000089552E00C94CA2941980AE10A95F1F700C000E4BCD0C3D3419A03D000934A05F1
:202CE00008950E94E82CA801E3EFF5E0608171816017710710F010E01BC0628573850617A8
:202D0000170710F015E014C001E032E0039FDF01A00DB11D6D917C914617170720F4102F03
:202D20001A95202F03C00395063078F3121729F402E0109F99D323D01BC0239F3F01600C1A
:202D4000711C139F91D32F018A0120E015D0E42D66D3A7D1F3018AD1F2017FD162D39BD13B
:202D6000F2010DD0A6D1F3010AD04DD372D183D16ED1ECE00C94F92C30E081D18FC104857C
:202D800015854FC30E94E72CC22E24E0C29E2CE7822E26E0800C211D922EE82DF22F17D30B
:202DA000E4EAF6E040805180662404D344195509DAD3F401CED3040D151D2A1F3A1F6ED15B
:202DC00012D3F8D234D19FD3400F511F621F4ED1401B510B60407040FF27EC2DE15CF84FA4
:202DE000008110E00E94132A48EE53E0E5D20E945D2A800F911FA21FB31F893803E190072C
:202E0000A605B6051CF088E893E106C081309605A040B0400CF441D08C01EDE00C94F82C4B
:202E200061D114D044240DC038D0042D31D000E4502E21D05A94E9F7242D19D0429E66D399
:202E400043940091A005401678F349C107EC0C948B0048D1502E21D0F9DF00E4402E0BD0EF
:202E60004A94E9F7252D03D0529E50D338C18C0189DF22E008950E947700800F911F0895DA
:202E80000E94EF2C0AD004D0E1DF0ED30C94002D0E9457290AE00C94E82780E090E0089531
:202EA0000E94E82C249700E0E0D306ECCBD2442455245394CDD20FEF400E501E042D0529FF
:202EC000C9F7803002E09007A207B207D0F0EED054DFAAD0CBD0D1D0E4D0A6D002811381FF
:202EE000BCD0CBD0D8D0A0D0A2D0C7D0E2D09CD00681178187D2ADD0BCD047D25DD24CD285
:202F000018F4CBDFA2D20AC041E058EE6DE777E47ED220F480E098EEADE7B7E4C7D097D030
:202F200023E0422E25E0522EE3E0F5E002831383209149052A3018F020E0209349052091D3
:202F40004905A6D000AB11ABE9E4F5E077D2F20180A991A96FD095D040A951A970D00A3004
:202F60001607C8F34AE050E03DD20283138345D270E4EFE4F5E04AD240F4853F940728F01B
:202F800048D2EFE4F5E06ED001C08C01F201C1D2009149050A3008F445C0009147050A302C
:202FA00018F000E0009347050091470512E0019F5BD2848F958FE7E4F5E040D29E010FE136
:202FC00015E0DAD243E0088119812A813B810E94372AF20106831783009147050A3010F172
:202FE00000914805063018F000E0009348050681209148054DD000871187E8E4F5E01ED2A3
:20300000F2018085918516D03CD04085518517D005301607C8F345E050E0E0D1E3E0F5E083
:20302000048315832496A5CEECE6F6E008950481158108950AD201E010E060E0089570E06D
:20304000840F951FA61FB61F0F5F1F4F08950C94CC2AEFD1A401B501089520813181021B58
:20306000130B08958DD10E94F82BF1CF00811181089501D013C00C941E2B20E030E00C94C5
:20308000CA2A9801220F331FF201E20FF31F089532E0239FE9C108D00E94F82BC801D901CF
:2030A000089502D0F6D1FACFA801B9018C019D01089505D0A8D1EAD1A401B501BAD14801AE
:2030C000590108950FD006ECC2DE4424552480E091E0C5D1400E511E0197D9F78201E6E0D2
:2030E0000C94FF2C0C94EE2C0E94E42C03E4AAD100E4402EADD14A94E9F7E4E7F6E097DF92
:2031000090D168017901D2DFBADFD9DFE4E787D1B8D1BFD158D1AADF212F220F220B801736
:203120009107A207B20750F002811381A0D14BD1068117817CD1A401B5010EC0EAE9F7E072
:2031400095DFE4E7F6E093D128013901ECE9F7E08DDF6DD1A201B3018CDF41E050E06AEFD1
:2031600076E4A4DF54D118F4AA240DE706C040E076EC12D120F4AA2403E8B02E02C067DFA1
:20318000580109E9802E04E0902E009100050A3010F05093000500910105043110F050932D
:2031A00001050091010512E0019F8401000D111D2091000540D121E0EBD0A5014CF45195D1
:2031C00041955040448F558FF80140AB51AB05C0248F258FF80120AB21ABE1EFF4E04083CF
:2031E0005183E0E0F5E02AD1F401048D158DC4DD6624639436D1048D158D04D13ADF639402
:203200000AE06016B8F3CAD0082F2DDFECD081D1E1E0F5E013D1F40180A991A9C6D021D15E
:2032200000A911A9BFD004E16016C8F344E1D3D022E3AED044F4C3D08233904020F42BD1DB
:203240002083218314C0BBD08333904090F02091CD0324FF04C02091B103222341F43181C9
:20326000863940E0304018F416D1408341838DD00DC026E98DD034F42091CE0325FD02C061
:2032800084D001C0A50120E02083218344835583F401048315830091FF040A3018F000E0C3
:2032A0000093FF04A0D0C3DE2091FF04C4D000871187EFEFF4E0C2D071D098D0DCDEF40164
:2032C0005FD06AD038F444E050E01DD101EA14E00E941B2DF4018085918567D0C2D00085F0
:2032E000118560D00AE06016C8F34AE050E064D079D00483158381D071E4E3E5F5E086D05E
:2033000040F48333950728F084D0E3E5F5E0AADE01C08C01F4010683178368D0F401F9D03A
:2033200022833383409002050091FF040A3018F106E0401608F0442402E0409E95D0E45A85
:20334000FF4F808391834394E5EFF4E040D0B0E06624639420E085D0E45AFF4F87DE22D030
:2033600005E06016C0F345E036D02AE5820E20E0921EF401CED040920205E0E10C94F52CD7
:203380004081518162817381089540E050E00895A21620E0B20608950C94812CF6DF60E2C8
:2033A00071E4089557D0639408954FD06624639420E008954281538160E070E0089513D07C
:2033C0008081918108957BDEE4E7F6E0089580819181A0E0089550E060E070E08C019D018B
:2033E0000C943A2AFBDFE3E9F4E00895E3E5F5E000811181228133810895C80141E050E0F4
:2034000060EA08953ADEAC01BD010895F1DF0C94992C8C0132DE40E068EC72E40AC00081BE
:203420001181212F220F220B322F0C94BF2AF9DFEADF0C947F2B32E0239F15C000810395B5
:203440000083089504DD80E090E0A0E0B0E0089506D020E0800F911FA21FB21F08950C940A
:20346000770002E0609EF401E00DF11D0895F5DDD8DF07D011DEA801B90108D0A601B7017F
:20348000D8CFA801B90184019501089504D020E83FE30C94622B00E010E008950E94EF2C15
:2034A00003E4D5DCFADCF1CC00E4402EE4DC4A94E9F78C01E5E008958A936897D1D020E065
:2034C000CAD0288329832A832B83D4D025D01BD0088319832A832B83093E2DEF120720F00E
:2034E00008EE0883298305C0083B1B4020F4388339833A833B8308811981EBE4F5E009D096
:2035000068968991089520E030E00895F001E858FB4F0083118308950E94F12CE2E9F7E0B9
:2035200056DFE7E9F5E04081518146DF405E5E421AD0E2E9F7E00DD00052114D2F4F3F4F96
:2035400001301A07204030400CF4A5DFE3E00C94022D4281538160E070E0481B590B6040A5
:2035600070400C945D2A60407040CDDF081B190B204030400C94132AB5DD6497A801FE014F
:2035800060E084E161938A95E9F770E022243324DB01AA0FBB1FFA01EA0FFB1F0080118018
:2035A0008E01F101EE0FFF1F0E0F1F1FF80108DF08161906A0F0CB010DC0DE01FC01EE0FF5
:2035C000FF1FAE0FBF1FFD013297408051804D925C9201972816390680F3F8010CC001E0DF
:2035E000200E00E0301ECB01019628163906C0F2FE01EA0FFB1F008211826F5F7F4F6A3080
:2036000000E0700718F261E070E0F9010080118022803380A0E0FE018B01000F111FE00F1F
:20362000F11FCEDE080E191E2A1E3A1E6F5F7F4F69307A0780F3F901008211822282338250
:2036400064964DCD8A93689700E020E00ED008D002D010D055CF84E121938A95E9F7089519
:203660008E010C5F1F4FF8010895088309830A830B83089507ECEBDB80E0F1DEFE013496CC
:2036800022E0829FF1DE0083118383958A30A8F39E018E010C5F1F4F6FDF0881198108959F
:2036A00072D289F473D20C7071F40091CB030A7051F466D241F460D231F45BD221F400916E
:2036C0005F05002311F007D001C000E000936005089501D0FBCFC2D1EEECF3E000810F7D6D
:2036E000008301E008950E94EF2C402E0091A005053019F400E81EE309C0073029F00930EB
:2037000019F400E810E702C000EF15E5ECE8F4E0208131810217130710F003D21AC003D260
:20372000FCD1042D04D2F9D1ECE8F4E00081118104D2C9D1C0D1F1D1F4D1C1D10E94622BE7
:2037400040E050E068E772E4B8D1C0D1B4D1B7D1ACD1E3D1B7D1B1D10E94CC2AEDE4F5E0D4
:2037600000831183AFD10E94992C28F480E090E0A8ECB2E408C060E070E095D120F480E003
:2037800090E0A0E0B0E09FD1E5E00C94002D0E94E42C21970E9474264091CB034A70F3D1E4
:2037A00049F4F4D1077031F4442321F4E9D111F4E3D119F051E0D1D101C050E050935F0568
:2037C0000091CF0303700883DED169F4DFD10C7051F4442341F4D4D131F4CED121F48DD193
:2037E000008900FF0DC03AD1BED10F7D008300E000936305ABD10093600500E07ED144D138
:203800000091CD0301FD1CC10881002309F418C10091B203002309F013C108810130A9F45D
:20382000B5D102FD97D1E9EAF5E002811091B403112311F087D101C06FD12ED109F460D15D
:2038400020D199F50091CE0525C0023089F49ED102FD80D18CD111F074D102C001815CD11E
:203860001BD109F44DD10DD101F50091CD0512C00330A1F48BD102FD6DD179D111F061D15A
:2038800002C0008149D108D109F43AD1FAD069F40091CB0545D16801790107C0EDD000E005
:2038A000088301E00093640555D100915F05002309F066C000E0009361050091640501303F
:2038C00031F0009162051091AC050117A1F0D4D00091AC050E9465270091AC050093620584
:2038E00002D10E94742704D10087018722873387BED00E94B12708810023E9F000916405EA
:203900004090AD054016B8F012D13A932A931A930A93042D11D10991199129913991C7D0FE
:20392000B8D0408651866286738605890395058B01E0028B1DC0E1D0408451846284738459
:20394000BED0820193010E94772C91F0ACD050F4A201B301B8D0BFD028F440E0820193017B
:20396000A4D0DBD0B0D095D080879187A287B387C4D080839183A283B383F5D0006105C0D0
:20398000C4D001E0058BEFD00F7E00837AD009F061C000916505013069F4A5D066D0A8D043
:2039A000048705872687378762D00091800000620093800008810023D9F00091650580914C
:2039C000AD058017A8F0AED0A601B70176D028013901082FB1D08201930169D046D08DD005
:2039E000448655866686778606890395068B1FC084D084859585A685B785A601B70163D032
:203A00000E94772CA1F04FD050F459D08601970162D028F440E057D048D06801790186010E
:203A2000970123D06AD0C486D586E686F78665D0C482D582E682F78296D0006200830AC06B
:203A400064D088D001E0009364058DD00F7E008384D01AD02196E0E10C94F52C0091800008
:203A60000F7D009380002A9808950C947E2703E00A95F1F7000008950E94B927219A2998FE
:203A80000895009160057AC0048305830683078308950E94742731C030D0008901701489D5
:203AA0001170012B08950C94812C0C941E2B03D02801390108950C94F82B0C947F2BAC01F9
:203AC000BD01089503D08C019D01089540E050E068EC72E408950E94622B41E050E060E099
:203AE0007FE30C94992C00E010E020E83FE3089500E020E83FE301C000E0EFE4F5E0089578
:203B0000CFDD01E0009363050895B6DFF5DF0087018702870387089503D0C801D901089545
:203B2000E2CD042D10E020E030E00C94CA2A10E0FADFAC01BD01C1CF10E0F5DFA801B90126
:203B400008950281EDDFC801D901C3DD01E0009365050895FADF00E0D5CFCEDF00830183AA
:203B6000028303830895EEECF3E000810895E9EAF5E00091B40302C00091B3030023089519
:203B80000091B103FBCF0091CC03F8CF0091CE0308959C01009166051091CF03137071F4FC
:203BA0001091CD0311FD0AC010913E08133030F01091B103112311F4039501C000E0009318
:203BC000660510E08091DC0590E003970817190724F01093660501E001C000E0C901089544
:203BE000AD01E9EDF5E000811181A1E9B4E02D913C910217130788F0A3E9B4E00D911C919A
:203C00000536104050F4A7E6B5E00C9103950C931281011728F001E004C000E00093670598
:203C200000E0DA01089560E070E030E05CD002E0209F4AEF50E0420D531D400D511D59D0B3
:203C400042E051E0420D531D5DD088F33395323068F330E020E004E0309F4AE051E04ED0E9
:203C6000D0F333953A30B0F342E351E042D044E351E03FD040E43CD042E43AD042E538D04E
:203C800044E52BC060E070E030E02DD002E0209F422D030D400D011D502F2BD048E052E014
:203CA000420D531D2FD090F33395323070F330E020E004E0309F40E152E020D0D0F33395A5
:203CC0003A30B0F348E314D04AE312D044E410D046E40ED046E50CD048E552E00E94CD29AB
:203CE000060F171F089520E004E0309F1001089552E00E94CD29600F711F0895400D511D5A
:203D000002E0209F400D511DF4DF2395223008958A93802F40E050E021E030E002E00E941C
:203D2000F807EAE0F7E0048115810F5F1F4F048315839BD02EE037E00DE98ED00091A807A9
:203D400010E0E3E5F7E0008311838FD09F0100EE83D00091CD0302FF02C001E001C000E0D7
:203D60000093550741E050E025E537E002EE11E074D059DFE2EAF7E065D019F160D02CE661
:203D800036E00AEF10E069D05AD024E736E002E063D048E250E02CE736E00AE011E060D0FD
:203DA00024EA36E002E311E05FD02AE937E000E45AD02CE937E002E452D022E937E002E565
:203DC00026C060DFE4EAF7E03DD011F138D026E537E000E03FD033D02EE537E008E03AD0D2
:203DE00048E250E026E637E000E112E039D02EE837E008E312E038D02EE937E004E433D03F
:203E000020EA37E006E42BD026E937E006E522D0813071F400918B080023E1F728D027D075
:203E200026D015D001E014D012D003E011D0A89501E00E94E8270E947D298991089548E046
:203E400050E008952081318102171307089503E20C94C72812E001C011E00C94CE0712E0F3
:203E6000FCDF44E0EDCF12E0F8DF42E0E9CF02E0EFCF002331F007D238F400E0FB0100839C
:203E80002BC042175307C8F3FB010081039500830117B0F309C0002319F0F5D120F41CC0CB
:203EA00042175307E0F302C000E0008301E00895002319F012171CF40FC02117ECF3F6CFC9
:203EC000012B39F4FA01008103950083021720F0EBCF00E0FA01008300E00895DCD3A1F5EF
:203EE00010919D0511702091CB038DD0D1F072D002FD17C0E8E6F5E066ED73E0B9D3C4D3DD
:203F000081F037D2016058D020D020E137E00FE924D201FF06C0F7D018D021E835E00EED1A
:203F2000EDD047D000FF10C0E8E6F5E0438154819CD3C1D000E0AFDF002331F04BD002FDD6
:203F400043D017D20E7F0287089506811781D8D0068317830BC29FD359F568D101FF14C02E
:203F600028D001FD11C0E0E7F5E067ED73E028D0A0D000E08CD341F0FCD102601DD0F1D181
:203F800022E137E001EAE6D114D001FF11C0E0E7F5E0438154818DD001E07DDF002341F08D
:203FA000E3D031F417D003FD0FD0E3D10D7F028708950091CB0308950287EAE0F7E008953A
:203FC0001281408151810895A4D002850F7B02870C948B2900918F0808955DD399F4109199
:203FE0009F0511702091CE030ED061F0EEEAF5E061EC73E02CD05FD04AD321F087D001608D
:2040000005871AD00895217001E020271223089542D389F400919F0501FF0DC00091CE030C
:2040200001FD09C0E1EBF5E062EC73E010D02CD311F03AD001D0089566D00285138560D09A
:204040000287138793D125E835E002EE57C012D3E3E0F5E008951FD331F500916105013056
:2040600019F408E91AE303C0ECEBF5E084D1E5E0F5E021D00217130740F416D000E0009336
:204080008000009381002A982998E5E0F5E073D10135134C40F03DD0038500681CD219F072
:2040A000012B09F05F9A089534D00585026005870895E1E9F4E0208131810895ECD289F463
:2040C00025D003FD0EC04DD0033019F4058507FF08C0EDE6F5E064EC73E0D3D211F016D091
:2040E00001D00895086005870ED00485158508D0048715873BD127E835E004EE10E02BC160
:204100000F5F1F4F0895EBE7F5E0089502D005850895E1ECF3E00895BCD211F5D9D184D01A
:2041200007FD10C021D0033069F4E9EBF5E065EC73E0A7D239F078D0006805870091CD059C
:204140000093CB0571D007FF0BC00BD049F40091CC050093CB0505850F77058700E004830A
:2041600051C10685037008950091CF03FBCF91D209F056C0ADD15AD004FF1DC052D004FD48
:204180000BC0E1EDF5E068ED73E01ADF3ED17CD219F047D00061028744D004FF0CC048ED91
:2041A00053E02091D40531D1E6D08ADE002319F038D00F7E028700919F0503FF11C034D0CC
:2041C00003FD0EC0CEDF033019F4058507FF08C0E6EBF5E063EC73E054D211F025D082DF07
:2041E00023D003FD0AC0F6DE037039F005850860058702850064028777DF16D003FF10C092
:20420000B0DF71F4E7DE037029F00E948B2909D00F7B02870585077F058700E00283038390
:20422000F1C0FD0102850895FD0171CF00919D05089531D239F50091CE0310919F0512FFB4
:204240001FC0EEEAF5E037DFE6EBF5E0BADE240F351FE5E9F4E0B5DE38D1FCD1460F571F21
:2042600012D048F0ECE8F4E026DFE4EBF5E0A9DE0AD008F40460C9D01EDF232B09F00B7FAB
:204280000093CE0308952417350708958A9303D209F05EC0CBDF02FF30C08BDE02FD1DC020
:2042A00020917505EAD121F42091760568D0A9F060D0046081DE0281138122DF02831383E0
:2042C00055D02CE037E00BE948D001FF06C01BDF48D023E835E000EE11DF6BDE02FF0DC09D
:2042E000809177052091750549D039F020917605C3D119F03ED00B7F028798DF03FF28C079
:2043000058DE03FD13C020917805B7D121F42091790535D059F02DD008604EDE2CD0F0DEF1
:204320000083118323D09F0109E914D042DE03FF0FC080917A052091780520D049F0209174
:2043400079059AD129F010DF19F413D0077F02878991089511E00C94CE07FCDF0091CD0314
:20436000089500851185CCDE0087118742E050E00895CFDE57CF008111810895281B109166
:204380004A0500E095DD0023089540E250E020E030E00EE117E00E941B2D980140E250E09F
:2043A0000DEAD8CF76D171F5AEE1B7E044E150E028E734E08D010E940C2D00914A05009338
:2043C000320723D025D0058B168BE5E0F5E020D0078B108F7AD01CD0018F128FCADF00932D
:2043E0003907038500933A07048500933B07058500933C07068500933D0740E250E09D0111
:204400000DEAA8DFA991B9910895E3E9F4E00895B2DFFD0108953DD1D1F47BDE038501FDE2
:2044200014C0A1E9B4E00D911C91093E134058F400E0008B01890395018B023340F0038553
:20444000026051D004C001E0008B00E0018BDACF20D1D1F53DD001D104FD17C0058504FD9B
:2044600014C0E5E9F4E087DF0938134170F0FD01078503950787023358F0038500612BD05A
:2044800039F0012B29F05F9A03C000E00093D003E4D003FD16C0058505FD13C016D06BDF93
:2044A000093C104070F0FD0102890395028B023358F0038508600FD039F0012B29F05F9AA6
:2044C00003C000E00093D3039DCFE7E9F4E00895A1ECB3E0089507D0EDE4F7E04CDF0F3F6E
:2044E0002FEF1207089503875DCF0E94F02C90E0D2D009F086C0ECDF00919E0500FF10C055
:20450000ACD000FD0CC0EDEDF5E066EC73E0B0D0BBD031F0A2D00160038791E001C095832F
:204520008091CC0300919E0502FF16C082FD14C02091E005A2D069F0FD0106810395068336
:204540001091E105011740F000E00683846091E003C000E00093C703FD012085318502EE85
:2045600015E0F8014585568550DF7AD0B0F0ADDF77D098F0E5E9F4E073D078F04091D5033E
:20458000442379F42F5F3F4FF801478550897BDE40F041E04093D50304C020E030E02093B1
:2045A000D503FD01208731872091D40330919E0536FF20C086FBF6F058D003DDE1E9F4E0B8
:2045C00049D0461B570B3091D5033323E9F41DDF41D0672B71F0F8013DD047D00080118005
:2045E0006015710530F4F801028113810417150748F120E02093D4038093CC0390FB0EF433
:20460000D1DEE4E00C94012DF80167817085058016802BD0208031800214130450F4621534
:20462000730538F0F801018512850417150750F0E0CF62157305E8F6F8010385148504179C
:204640001507B8F623950091E605201798F2806491E0D0CF608171810895FD010385089514
:2046600060817181461757070895EEE8F4E0089501D0FBCF1281A5CC280F10914A0501E021
:2046800081CEF8DFEFE9F4E02081318101E0F1DB7ACEBA93AA93E0E8F3E06DDE0F3F1140F1
:2046A0000895AD01F8DFD9F431DD26852370AFE9B5E01C911170302F3170132329F02223D0
:2046C00019F40E7F10E010831C9111FF07C001FB2EF4222319F40D7F10E011830587DA0152
:2046E0000895D9DF21F4FADB42DDD0DDDADF08950091D903013021F40E94F1070E94CE2874
:2047000000E00093D90308950E94F02CABE7B5E08091A0050091A205E8EBF0E00C94A72CC4
:2047200000E07CD101E07CD101E078D102E021C002E074D103E074D103E070D104E019C001
:2047400004E06CD10091A0050630E0F005E068D105E064D106E00DC0863010F006E05ED146
:204760000091A005083070F007E05AD107E056D108E00E94572919C1883010F008E04ED1A8
:204780000E94692949D111C147D10E9478230E949C290E9448160E940B2207C10E945C1A8E
:2047A000E0E8F3E09CD10F3F114009F4C5D134D10E946416ECE8F4E092D108581341EBE410
:2047C000F5E028D208F044C04091A105FD01048D158D9801285B3B40EBE4F5E06081718158
:2047E00026173707B8F40854144F6017710790F40091A705401750F401E00093B10307D287
:204800000F7D008300E00093B2032EC0FD01039504A72AC028D141F50091A8054017A0F4F0
:204820000091B203002351F440E552E00E94CD290395202F00E512E00E94E20701E000931E
:20484000B203E5D100620FC0FD01039505A70CC000E00093A7050093B1030093B20300936D
:20486000A805D5D10F7D00830091A4051091A605112329F41091B103113009F401E0FD018D
:2048800080A191A100231091B10341F0112341F08C3211E0910738F4019605C0112319F4A7
:2048A00000E080E090E080A391A301A70091B10303A77BC00E947418AFD00E945E200E94B0
:2048C00028222DD2002309F470C00E9471230E947522A5D155D1A7D00E94F01D002349F0B2
:2048E0000091A505002321F07CD029E835E08DD089D00E94C91D002349F00091A5050023DF
:2049000021F06FD01E969D0180D07CD000913E08043008F04AC0039500933E0846C00E9433
:2049200072297AD00E948C202BD2002309F1A3D152D0C9F0FD0102A5039502A70A3098F033
:204940000685178520893189065F1F4F2F4F3F4F06871787208B318B44E050E01E969D01B6
:2049600006EE10E053D01ED2002311F00E942015DBD01BC000E054D00E94AB1F0E94192173
:204980000E94ED1F0E94CC0E8AD100918703013031F4E5EBF3E000810F61008304C00E94A4
:2049A000B80F0E9415120E947A140091A205093010F000E001C003950093A2050E94C71BCF
:2049C0000E9408200E9406150E942B200E947823E4E00C94012DE5E9F4E000811181012BB3
:2049E000089510E0FD014685578560897189400F511F611F711F46875787608B718B44E01D
:204A000050E0089500E00C94881E06EE0E94CE0700E00093A50508950C9450170C94291797
:204A20000E945729F9CF0091CC03002399F4E9D002FD10C00091CB030D7961F40091CF0357
:204A4000037011F010D031F00ED021F00091D103002321F440E00BD00F7E03C044E007D00F
:204A60000061008308950091B1030023089550E021E030E056D0EDECF3E00081089500E09F
:204A80000093A30508952BE735E027D0F9014289538904171507F8F004891589E3E9F4E095
:204AA0004081518104171507B0F0ABD002FD13C0F90100A5039500A710919105011760F0C2
:204AC000DADF04600083F90166D142E050E008ED9BD00C94C815D3DF0895EEE8F4E000815C
:204AE00011810895083048F4402F01E010E00E94E429A80112D042E003C029F40CD042E495
:204B000050E023E00DC0093029F405D042E850E023E004D0089540E050E024E030E001C077
:204B200030E002E00C94F80743E050E09A01F9DF40E050E024E0F4CFBA93AA9362D001FF4B
:204B400018C0E5EDF5E0AEE8B4E00D911C9162D080F0A1E9B4E02D913C91021B130B228138
:204B600033815AD030F000919004BCDF84DF086003C0DADF80DF077F0083A991B9910895A7
:204B8000BA93AA93ABE7B5E03CD001FF1EC07BDFFD0102A107FF34C0068D178D218D328DE1
:204BA0003BD070F134D007FD2BC000680083FD01048115810F5F1F4F0483158342E050E045
:204BC00014969D010CED20D01BC0FD0102A107FF0AC00091CB0307FF06C013D000FF03C088
:204BE00016D00F7700834BDF0CD002FF09C075DFFD012789308D10D018F43DDF0B7F008322
:204C0000BCCF0091CD03089510E00C94CE07EBECF3E033CF20813181021713070895009146
:204C2000CF03037059F0D7DE21F4E7E9F4E0D5DE29F021DF0D7F0083016019C0E3E9F4E0C3
:204C4000CCDEB1F0DEDF01FD0EC0EBE7F5E0028113810F5F1F4F0283138342E050E02DE765
:204C600035E00AEDD1DF07DF0E7F00830260F9CE02DF0C7FFCCF192F282FC3DF01FF06C01B
:204C8000EBE7F5E0868D978D019602C080E090E0EBE7F5E0868F978F822F912F08953AD013
:204CA000A90110E001E011C062E0069FF001E858FB4F608171814617570710F4AB01102FC9
:204CC0006217730708F49B0103956091A005061758F310939004E1E9F4E020833183EEE8B1
:204CE000F4E040835183089515D001E00AC012E0019FF001E858FB4F40815181240F351FF5
:204D000003951091A005011790F3ECE8F4E0208331830895E8E7F4E0208131810895EFEC10
:204D2000F5E00181039501830A3000E040F10183008110918E08112321F000E000938E082B
:204D40000AC010918503112331F00395033118F000E000938503008354DF02FF0CC0009128
:204D6000B103013041F410917104012F0395193718F009E701C000E00093710401E00895CC
:204D8000E6EAF7E008D00835124000E018F00083018301E00895008111810F5F1F4F008326
:204DA00011830895E8EAF7E00081039500830E3100E010F0008301E00895FA93EA932A9396
:204DC0001A930A932FB70091A907002339F419E0E9EAF7E001810160018303C01091A907F4
:204DE0001A951093A9072FBF099119912991E991F9911895FA93EA937A936A935A934A9336
:204E00003A932A931A930A937FB700918703013021F405B1086F05B933C020E0422F4D5F2C
:204E200039D0502F0095602F30E0EBEAF7E0E20FF31F3091B503422F2DD03023C1F0058196
:204E4000013049F40081039500830230B0F000E0008305830FC0028503950287023068F08A
:204E600000E0028701E0058305B1052B05C000E00083028705B1062305B92395253070F2BD
:204E80007FBF09911991299139914991599169917991ADCF01E010E00C94E4290CE707BD93
:204EA00002E004BD03E005BD02E000936E0008950EE30093B30002E00093B00006E0009355
:204EC000B10002E0009370000895002361F0093250F4402F50E000E81EE30E94FF291093B7
:204EE000870000938600089511D028F41DD01093890000938800E4E00C94012D07D028F4BF
:204F000013D010938B0000938A00F5CF0E94F02CC801D901009086001090870041E050E0B0
:204F200068EC72E40C94812C800120E030E00E94CA2AAC01BD010E947F2B40E050E068ECF8
:204F400072E40E94F82B0C94CC2A08E2BEDF00E010E020E83FE3C8DF07D008E100938100A4
:204F6000089502D009E1FACF08D002E800938000089503D000938000F1CF00E000938500FF
:204F8000009384000895F894A89504B7077F04BF0091600008610093600000E00093600070
:204FA00078940895002399F00B3088F4093018F40A95086004C011F408E201C009E2F894AE
:204FC000A89510916000186110936000E7CFDBCF10E008C02FEC37E021503040E9F700C04C
:204FE000000013951017B0F30895FA93EA932A931A930A932FB70091C00005FFFCCF0091FA
:205000008C08102F139510938C08F0E0E02FEB5BF74F00810093C60000918C0810918D083E
:20502000011741F400E000938B080091C1000F7B0093C1002FBF099119912991E991F991FD
:2050400018958A93FA93EA933A922A921A920A927A936A935A934A933A932A931A930A9304
:205060008FB70091C60010914108112309F04BC010914008105029F01A95C1F01A9529F1E6
:205080005DC02091C0001091420824FB5EF0083A49F41395143038F001E069D00450009396
:2050A000430801C010E0109342080AC01091C00014FD02C0083A21F002E059D000934408CC
:2050C00000913F080E5F4ED039C00091430810E020914408020F111F16950795025042D0BF
:2050E00004E00093400801E00093410841E050E021E438E00CE433D041E050E026E630E066
:205100000DE42DD01BC0023011F400E012C0033021F401E00093BA070EC020913D08F0E0CC
:20512000E22FE654F84F0183213828F400913D08039500933D0800E000933E088FBF0991FD
:2051400019912991399149915991699179910990199029903990E991F9918991189512E0D8
:205160000C94CE0700933F080093660008950093400800913F0808951093C5000093C4003B
:2051800008E90093C10006E00093C20008951091C00015FFFCCF0093C6000895219742ECD6
:2051A00050E022E09CD0083011F0CBD011F000E03FC03FD019F0AFD095D037C04FEF50E03C
:2051C00024E08DD040EC50E023E089D00AE083D04FE150E029E083D045E050E028E07FD011
:2051E00040E150E02AE07BD043EC50E026E077D04DE050E027E073D042E66FD01AD089F0EC
:2052000041E46BD086D00FEF088316D0F1F7088105FF07C0429A7DD040E05FD0429809D002
:2052200011F40ED0C4CF0CD04BD000E040D001E062C00AD000230895AE0120E088D0FACFA4
:2052400043E076D024E042C0249700E020E0FE01E00FF21F208303950430C8F3AE0126E066
:20526000EDDFE1F7AE014F5F5F4F28E0E7DFD1F7AE014E5F5F4F29E0E1DFD1F7AE014D5FF3
:205280005F4F2AE0DBDFD1F701E01881133C09F000E01981153009F000E01A811F3109F096
:2052A00000E01B81103109F000E0249608958A93802F06D0482F50E025E011D0899108951B
:2052C00043E050E09A010CC02ED001C02ED00C94F8074BE0F9CF0C94E82750E02BE030E0CB
:2052E00002E0F5CF219700E00883A6DFF1F7088100938F0800C02196089540E050E021E060
:20530000EEDF04E6E8DF43E450E022E0E8DFA895FFCF01E0E0CF40E050E021E0E0DF41E023
:2053200007D021E0D3CF50E023E030E002E00895C8DF40E050E00895219703D009F02EDF0C
:20534000DACFAE0122E003D00881023C089530E002E00C94950800008895FECF0FE70DBFE1
:2053600003E00EBFC0E0D3E00E940A2D002311F00E94322D0E9403160E94AB290C94AB2987
:20538000F999FECF08954F5F5F4FFADF41BD52BDF89A0895FADF00B50895F7DF00B5F3DF18
:2053A00010B508954F5F5F4F41BD52BDF894FA9AF99A0FBE08950FB6E3DF00BDF5DFE0DF2E
:2053C00010BDF0CF000F111F4A95E2F7089500241124EFE0001F111F001C111C04161506B8
:2053E00010F0041A150AEA95AAF7001F111FA0010095109508955195419550400895FF277A
:20540000552312F4F160F7DF112312F4F09507D00E94E729F0FD03D0F1FDEDCF08951195F2
:205420000195104008952224349F302D259F300D169F300D079F300D249F202D310D159F9B
:20544000200D311D069F200D311D149F102D210D321D059F100D211D321D049F002D110D08
:20546000221D321D089536952795179507954A95D2F70895002411241001E0E2EA9592F0C0
:20548000001F111F221F331F001C111C221C331C041615062606370688F3041A150A260ACE
:2054A000370AECCF001F111F221F331FA001B10100951095209530950895FF27772312F4A4
:2054C000F16015D0332312F4F09509D00E943A2AF69508F404D0F69508F409C008953095C9
:2054E0002095109501951F4F2F4F3F4F089570956095509541955F4F6F4F7F4F0895FF27F3
:20550000112477FB660F771F089409F4771F679517F8EE27002437FB220F331F089409F418
:20552000331F279507F8089527FD0EC0EE0F001F111F221F3A953230B8F7332319F427FDDB
:2055400031E002C027FF30E0E03821F400FF08940EF488940F4F1F4F2F4F3F4F323038F4F6
:20556000332319F427FD31E002C027FF30E03F3F29F0220F000C379527950895ACC0032E05
:20558000002012F40E946F2AE02F012F122F232F3EE9D1CF0024F8CFBCDF432F4F5748F03B
:2055A0004F3148F007FC91C03FE72FEF1FEF0FEF089533278CC0322F212F102F0E2F4F517F
:2055C00041950E94372A07FE08950C946F2AF901EE0FFF1F37FBFF3F31F0EF2BE12BE02B40
:2055E0008894B8940895E02BE12B21F008949894B89408959894889438940895FB01EE0F23
:20560000FF1F77FBFF3F31F0EF2BE52BE42B8894B8940895E42BE52B69F3E8CFEFDF68F005
:2056200021F43723262F8A010895372FFBCFE6DF20F00BF008957327EAF751C0C8DFE8F3D3
:20564000B3F361F3DBDFC8F383F3A1F358DF401751076207730731F4011411F10024E8942C
:2056600088942BC078F0332E372F732D322E262F632D312E152F532D302E042F432D302C8F
:20568000012C132C371739F0669557954795F795E0407395F7CFE7FBEE0FE0E010246AF0BD
:2056A000EF0F041F151F261F60F4279517950795E79508F4689433953ECFEF0B040B150B86
:2056C000260B39CFE0E87E27B9CF302D307822271127002708953FE7302920E8F9CF3FEFD5
:2056E0002FEFF6CF8BDFD8F3D1F370783727089585DFA8F3A3F3F9CF3078372793CF67DFE0
:2057000070F383F3A9F37ADF50F3B3F3A9F3F7DE0124E8943F57E040370FEF1F12F0D9F6E5
:2057200003C03A3E90F26894E0E00A92AA933A93AA27332422243327049FF001059FF00D4D
:20574000712D731F149FF00D711D221C069F700D211C331C159F700D211C331E249F700DF0
:20576000211C331E169F200C311CAA1F259F200C311CA31F269F300CA11D39915EF4339502
:20578000A695379427947795F795E79533953130BCF316C0AA2322F0332351F4339510C074
:2057A000339571F4A991099096CFA7FD09C03A95EE0FFF1F771F221C331CAA1F3230A8F740
:2057C000E894FE2B09F068942A2F8101E72FA9910990BACE13DF10F00BF087CF80CF0EDF64
:2057E000E9F3E0F3032E072670CF032E072673CFEEDEA0F37BF399F301DF80F39BF3A9F3E7
:205800007EDE012427FD06C0000F111F221F3150E040F8CF67FD06C0440F551F661F7150FE
:20582000F040F8CFE894371BEF0B3158EF4F2AF0EE23E9F63F3FD9F203C03A3EA8F26894BE
:20584000E0E0F0E01124139440175107620738F0315008F46894000F111F221FEE1F041B77
:20586000150B260BEF0B000F111F221FEE1F0A9279E17A95AAF0041715072607EF0730F037
:20588000041B150B260BEF0B089401C08894111C221C331C001C000F111F221FEE1FE9CF0A
:2058A000F0F9E894E22BE12BE02B09F068940694379427941794E79508F468947395B9F377
:2058C0000990332311F0F0FF09C0369427941794E79508F4689433953130BCF3012D122D37
:2058E000232D32CE8BCE98940895189408956FDED0F3C1F383DEB8F304171507260737077B
:2059000008957CDEA0F063DE90F029F0E32FE7273AF47317089572DE51F04EF008940895A9
:20592000041715072607370719F016F4B8F78894089564DEE0F34BDED0F3E7DFC0F3089434
:2059400008954591159011FA259035900895F9DF041B10E000C020E030E000C0B8F010FCE2
:2059600017C045910590E00FF11F0417100540E02407340758F436F404910024F101E01B14
:20598000F0090994E00FF11F25903590F101099411F4D6F7F1CF31960EF0319650E060E0DB
:2059A00070E045914B3F48F089F34F3F29F04E3F11F07591659155914591041B150B260B26
:2059C000370B39F318F3E7CFFA92EA92DA92CA92BA92AA929A928A927A926A925A924A9228
:2059E000BA93AA939A938A930895FF84EE84DD84CC84BB84AA84998488847F806E805D8030
:205A00004C80BB81AA8199818881F0E0EC0FFD1FEF01089501E008950D01D80105C0F90198
:205A200060816D932F5F3F4FBA0141505040672BB1F7D0010895F80101C02193BA0141502B
:205A40005040672BD1F7089520E006D0E9F70895259102D0E9F708952D9301501040202FB7
:205A6000212B08958CEA9AE5FC0105911491FC013296A591B491FC01349625913491422F1D
:205A8000432B19F0F901E4DF01C0DEDF06961AE5883B910748F30895F80101C03196208164
:205AA0002223E1F7E01BF10B8F01089559008003B85AB704D903000000000200000000001E
:205AC000333051003953315000466163656C6966745F42725F4F6E000000000000000000B8
:205AE0000000000000000000040000000000000000000000000000000000000000000000A2
:125B00000000000000000000000100000000000000FF93
:00000001FF
