:100000000C9497000C94BF000C94BF000C94BF009C
:100010000C94BF000C94BF000C94BF000C94BF0064
:100020000C94BF000C94BF000C94BF000C94BF0054
:100030000C94BF000C94BF000C94BF000C94BF0044
:100040000C94A0070C94BF000C9410080C94EA07C1
:100050000C94BF000C94BF000C94BF000C94BF0024
:100060000C9442080C94BF000C94BF000C94BF0089
:100070000C94BF000C94BF000C94BF000C94BF0004
:100080000C94BF000C94BF000C94BF000C94BF00F4
:100090000C94BF000C94BF000C94BF000C94BF00E4
:1000A0000C94BF000C94BF000C94BF000C94BF00D4
:1000B0000C94BF0000000000240027002A002D003F
:1000C00000000000250028002B002E00000000008A
:1000D0002300260029002C00040404040404040462
:1000E00002020202020203030303030302020305E6
:1000F00005050501020408102040800102040810D3
:1001000020010204081020408040010204080A0D6A
:100110000E090003020000040508000000000000B2
:10012000000000000000000000006E09170E1124FE
:100130001FBECFEFD8E0DEBFCDBF12E0A0E0B1E040
:10014000E8EDF3E202C005900D92AA36B107D9F7A7
:1001500023E0AAE6B2E001C01D92A63BB207E1F798
:1001600010E0C6E9D0E004C02197FE010E94A01073
:10017000C539D107C9F70E94F3090C94DF110C941B
:100180000000880F8093BA0008959B01AC0160E0E5
:1001900072E18AE790E00E947E1020513109410906
:1001A000510956954795379527952093B80008959E
:1001B000882321F085EC8093BC00089585E8FBCF6F
:1001C00085ED8093BC008091BC0084FDFCCF109233
:1001D000B402089585EC8093BC001092B402089597
:1001E000FC0181899089891B990B089582508D307B
:1001F00008F03EC0E82FF0E0E050FF4F0C94A01054
:10020000350139010D0113013801380117011D01B4
:100210002101270138012B013101809180008F7766
:10022000809380000895809180008F7DF9CF809128
:10023000B0008F778093B00008958091B0008F7DDB
:10024000F9CF809190008F778093900008958091EE
:1002500090008F7DF9CF8091A0008F778093A000D0
:1002600008958091A0008F7DF9CF84B58F7784BDEC
:10027000089584B58F7DFBCFCF93DF93282F30E097
:10028000F901E25FFE4F8491F901ED50FF4FD491E7
:10029000F901E852FF4FC491CC23A1F081110E94D3
:1002A000F600EC2FF0E0EE0FFF1FE453FF4FA59197
:1002B000B491EC91ED2381E090E009F480E0DF91CE
:1002C000CF91089580E090E0FACF1F93CF93DF9312
:1002D000282F30E0F901E25FFE4F8491F901ED50E3
:1002E000FF4FD491F901E852FF4FC491CC23A9F0FC
:1002F000162F81110E94F600EC2FF0E0EE0FFF1F89
:10030000E054FF4FA591B4918FB7F894EC9111117F
:1003100008C0D095DE23DC938FBFDF91CF911F9172
:100320000895DE2BF8CF1092B40281E08093B602DC
:100330001092B50261E082E10E94650161E083E113
:100340000E946501E9EBF0E080818E7F80838081EF
:100350008D7F808380E28093B80085E48093BC0029
:100360000895ECEBF0E080818A7B808360E082E19D
:100370000E94650160E083E10C946501CF93DF93F7
:1003800090E0FC01ED50FF4F249188529F4FFC01FB
:1003900084918823C9F090E0880F991FFC01EC54E8
:1003A000FF4FA591B491FC01E054FF4FC591D4914A
:1003B00061110DC09FB7F8948C91209582238C9386
:1003C0008881282328839FBFDF91CF9108956230D1
:1003D00051F49FB7F8943C91822F809583238C939E
:1003E000E8812E2BEFCF8FB7F894EC912E2B2C9326
:1003F0008FBFEACF1F93CF93DF93182FEB0161E0FC
:100400000E94BE01209739F460E0812FDF91CF91E7
:100410001F910C946501CF3FD10511F461E0F5CF38
:10042000E12FF0E0E25FFE4FE491E250ED3008F0A2
:1004300072C0F0E0E25EFD4F0C94A0102B0233027C
:10044000380242028B028B024C0254025C026602AA
:100450008B027102800284B5806884BDC7BDDF91C4
:10046000CF911F91089584B5806284BDC8BDF7CF38
:1004700080918000806880938000D0938900C09331
:100480008800EDCF80918000806280938000D093BF
:100490008B00C0938A00E3CF8091B0008068809386
:1004A000B000C093B300DBCF8091B0008062809336
:1004B000B000C093B400D3CF809190008068809347
:1004C0009000D0939900C0939800C9CF5A9A809118
:1004D0009000806280939000D0939B00C0939A001C
:1004E000BECF8091A00080688093A0008091A00082
:1004F0008F7B8093A000D093A900C093A800AFCFBA
:100500005A9A8091A00080628093A000D093AB00A3
:10051000C093AA00A4CFC038D1050CF07FCF74CF10
:1005200092EF980F9B3010F09DEE980F20910601EE
:1005300080E4289F900111249770922B90937C0067
:1005400080917A00806480937A0080917A0086FDA1
:10055000FCCF809178009091790008953FB7F8948E
:100560008091DD029091DE02A091DF02B091E00265
:1005700026B5A89B05C02F3F19F00196A11DB11DFE
:100580003FBFBA2FA92F982F8827BC01CD01620F3A
:10059000711D811D911D43E0660F771F881F991FF4
:1005A0004A95D1F708958F929F92AF92BF92CF92C2
:1005B000DF92EF92FF924B015C010E94AE026B0151
:1005C0007C010E94AE026C197D098E099F09683E6C
:1005D000734081059105A8F321E0821A9108A108D2
:1005E000B10888EEC80E83E0D81EE11CF11C81140E
:1005F0009104A104B10429F7FF90EF90DF90CF9010
:10060000BF90AF909F908F900895AF92BF92CF927E
:10061000DF92EF92FF920F931F93CF93DF936C01C2
:100620007B018B01040F151FEB015E01AE18BF08A3
:10063000C017D10759F06991D601ED91FC91019055
:10064000F081E02DC6010995892B79F7C501DF916D
:10065000CF911F910F91FF90EF90DF90CF90BF90BF
:10066000AF900895FC01538D448D252F30E0842FE9
:1006700090E0821B930B541710F0CF9608950197CA
:100680000895FC01918D828D981761F0A28DAE0FB7
:10069000BF2FB11D5D968C91928D9F5F9F73928F3E
:1006A00090E008958FEF9FEF0895FC01918D828D6A
:1006B000981731F0828DE80FF11D858D90E0089537
:1006C0008FEF9FEF0895FC01918D228D892F90E08F
:1006D000805C9F4F821B91098F739927089581EE4B
:1006E00092E00E94630321E0892B09F420E0822F2D
:1006F0000895FC01A48DA80FB92FB11DA35ABF4FB7
:100700002C91848D90E001968F739927848FA68910
:10071000B7892C93A089B1898C91837080648C9364
:10072000938D848D981306C00288F389E02D808113
:100730008F7D80830895EF92FF920F931F93CF9345
:10074000DF93EC0181E0888F9B8D8C8D98131AC00C
:10075000E889F989808185FF15C09FB7F894EE89F3
:10076000FF896083E889F989808183708064808350
:100770009FBF81E090E0DF91CF911F910F91FF909B
:10078000EF900895F62E0B8D10E00F5F1F4F0F7343
:100790001127E02E8C8D8E110CC00FB607FCFACFFE
:1007A000E889F989808185FFF5CFCE010E94790320
:1007B000F1CFEB8DEC0FFD2FF11DE35AFF4FF082CF
:1007C0009FB7F8940B8FEA89FB8980818062CFCF35
:1007D000CF93DF93EC01888D8823B9F0AA89BB8978
:1007E000E889F9898C9185FD03C0808186FD0DC063
:1007F0000FB607FCF7CF8C9185FFF2CF808185FF84
:10080000EDCFCE010E947903E9CFDF91CF9108951A
:1008100080E090E0892B29F00E946F0381110E94F3
:10082000000080E090E0892B49F080E090E0892B87
:1008300029F00E94000081110C940000089520917D
:100840009002260F3327331F21323105ECF420911B
:10085000B402FC0190E080E0243069F082E0089569
:10086000A09190022191AC0140595D4FA40FB52F8A
:10087000B11D2C930196861798F380919002680F12
:100880006093900280E0089581E008950F934132D3
:1008900008F044C09091B4029111FCCF92E0909383
:1008A000B4020093B6029FEF9093B3027093B80224
:1008B0006093B7021092BA024093B9021092BB0241
:1008C0009091BB02880F892B8093BB028091B50267
:1008D000813011F51092B5028091BB028093BB006C
:1008E0008091BC0083FDF8CF85EC8093BC0022236F
:1008F00021F08091B4028230D1F38091B3028F3F16
:1009000079F08091B302803269F08091B302803334
:1009100059F084E00F91089585EEE7CF81E0FACF9A
:1009200080E0F8CF82E0F6CF83E0F4CF4132E0F50B
:100930009091B4029111FCCF91E09093B402209376
:10094000B6022FEF2093B3027093B8026093B70200
:100950001092BA02240F2093B9029093BB02909197
:10096000BB02880F892B8093BB028091B502813036
:10097000C9F41092B5028091BB028093BB008091B4
:10098000BC0083FDF8CF85EC8093BC008091B4025D
:100990008130E1F38091BA02841710F44091BA02D9
:1009A000842F089585EEF0CF40E0FACFE0919A03CE
:1009B000F0919B03309729F01092970310929803BF
:1009C00009940895DC0180919C0390919D03892BEB
:1009D00019F190919203809193039817E8F090E0B9
:1009E000292F30E0261737076CF4FD01E20FF31FC3
:1009F0004081E0919003F0919103E20FF31F408357
:100A00009F5FEECF1092920360939303E0919C035B
:100A1000F0919D03CB01099408950895DC0150964F
:100A2000EC91509751968C915197E81748F41E9687
:100A30008D919C91E80FF92FF11D808190E0089530
:100A40008FEF9FEF0895FC01908981892FEF3FEF91
:100A5000981740F4A685B785A90FB11D2C9130E0F9
:100A60009F5F908BC9010895CF92DF92EF92FF9222
:100A70000F931F93CF93DF938C01CB017A01D801A1
:100A800057962C915797222389F0EB016B01C40EE6
:100A9000D51ECC15DD0579F06991D801ED91FC9159
:100AA0000190F081E02DC8010995F3CF9896ED9162
:100AB000FC91642F0995C701DF91CF911F910F9190
:100AC000FF90EF90DF90CF900895CF93DF931F9228
:100AD000CDB7DEB7FC01698387898823F9F02689C1
:100AE000848595852817190654F081E090E093835A
:100AF000828390E080E00F90DF91CF91089589810B
:100B0000A58923893489A20FB32FB11D8C938589C0
:100B10008F5F858B868B81E090E0EDCF00A4F1A5FF
:100B2000E02D61E0CE0101960995F5CF0F931F935B
:100B3000CF93DF93162FC2E8D3E091E09F8B90E133
:100B40009A8B1D8A1E8A682FCE010E946505612F2F
:100B5000CE010E9465056B897C89EEA1FFA101E0B1
:100B600021E04E898A8909951D8A1E8A1F8ADF9194
:100B7000CF911F910F91089590E080E0089570E06B
:100B800060E089E00E94FA0170E060E08AE00E9483
:100B9000FA0160E086E00E94650160E084E10E9465
:100BA000650160E085E10C9465010F9391E09093FD
:100BB000990390E1909394031092970310929803F5
:100BC000682F82E893E00E9465056091950370911B
:100BD0009603E091A803F091A90301E021E0409180
:100BE00098038091940309951092970310929803AB
:100BF0001092990340918E0350918F03141615069D
:100C000014F441E050E06091900370919103E09101
:100C1000A603F091A70321E080E1099510929203C9
:100C200080939303882331F082E893E00E942305A8
:100C30000F91089580E0FCCFFC0101900020E9F7BE
:100C40003197AF01481B590BBC0181EE92E00C9427
:100C500005038F929F92AF92BF920F931F93CF93F2
:100C6000DF93CDB7DEB7A1970FB6F894DEBF0FBE06
:100C7000CDBF19A2423008F44AE08E010F5D1F4F2C
:100C8000842E912CB12CA12CA50194010E947E10E0
:100C9000E62FB901CA01EA30F4F4E05DD801EE9321
:100CA0008D01232B242B252B79F790E080E01097E2
:100CB00019F0CD010E941C06A1960FB6F894DEBF74
:100CC0000FBECDBFDF91CF911F910F91BF90AF901D
:100CD0009F908F900895E95CE1CFCF92DF92EF92E1
:100CE000FF92CF93DF936B017C016DE281EE92E086
:100CF0000E949B03EC0166277727CB016C197D09C5
:100D00008E099F094AE00E9429068C0F9D1FDF91E2
:100D1000CF91FF90EF90DF90CF900895CF93DF9326
:100D20000E941C06EC0181E391E00E941C068C0FDE
:100D30009D1FDF91CF91089584E391E00E948E067C
:100D400064E670E080E090E00E94D30263E082E01D
:100D50000C9496054F925F926F927F928F929F9222
:100D6000AF92BF92CF92DF92EF92FF920F931F93B9
:100D7000CF936B017C01742EAC019B010E94651026
:100D8000882399F080E791E0CF911F910F91FF9018
:100D9000EF90DF90CF90BF90AF909F908F907F901B
:100DA0006F905F904F900C941C0646015701E89499
:100DB000B7F82FEF3FEF4FE75FE7C501B4010E949F
:100DC000651081110DC02FEF3FEF4FE75FE7C501C1
:100DD000B4010E949B0E18161CF484E791E0D4CF56
:100DE0002FEF3FEF4FE75FE4C701B6010E94F30F1B
:100DF00018161CF488E791E0C7CF2FEF3FEF4FE7BD
:100E00005FECC701B6010E949B0E87FDF3CF20E087
:100E100030E0A901C701B6010E949B0E10E000E07E
:100E200087FF0AC06DE281EE92E00E949B038C0175
:100E3000F7FAF094F7F8F094C0E060E070E080E03A
:100E40009FE37C1641F020E030E040E251E40E9454
:100E5000A00ECF5FF6CFA70196010E942F0E2B01A7
:100E60003C010E94120F4B015C014AE00E942906DE
:100E70007C01E00EF11ECC23C1F1C501B4010E943A
:100E8000410F9B01AC01C301B2010E942E0E4B0128
:100E90005C016EE281EE92E00E949B03E80EF91E77
:100EA000C15018F120E030E040E251E4C501B40146
:100EB0000E94F80F2B013C010E94120F4B01B12C34
:100EC000A12C4AE0C501B4010E942906E80EF91ED2
:100ED000C501B4010E94410F9B01AC01C301B201E5
:100EE0000E942E0E4B015C01DBCFC701CF911F91F9
:100EF0000F91FF90EF90DF90CF90BF90AF909F90B9
:100F00008F907F906F905F904F9008950C941C0687
:100F1000CF93DF93BC01990F880B990B97FF0CC0FF
:100F20000E946D06EC0181E391E00E941C068C0F8B
:100F30009D1FDF91CF9108954AE00E942906F2CFCC
:100F40001F920F920FB60F9211242F933F938F93FE
:100F50009F93AF93BF938091D9029091DA02A091B1
:100F6000DB02B091DC023091D80226E0230F2D374E
:100F700068F129E8230F0396A11DB11D2093D80223
:100F80008093D9029093DA02A093DB02B093DC0243
:100F90008091DD029091DE02A091DF02B091E0022B
:100FA0000196A11DB11D8093DD029093DE02A093F6
:100FB000DF02B093E002BF91AF919F918F913F917B
:100FC0002F910F900FBE0F901F9018950296A11DA4
:100FD000B11DD4CF1F920F920FB60F9211242F93F1
:100FE0003F934F935F936F937F938F939F93AF93B1
:100FF000BF93EF93FF9381EE92E00E947903FF91FC
:10100000EF91BF91AF919F918F917F916F915F9180
:101010004F913F912F910F900FBE0F901F901895F9
:101020001F920F920FB60F9211242F938F939F93BD
:10103000EF93FF93E091F102F091F2028081E09151
:10104000F702F091F80282FD1BC090818091FA02B4
:101050008F5F8F732091FB02821741F0E091FA02BB
:10106000F0E0EF51FD4F958F8093FA02FF91EF91E1
:101070009F918F912F910F900FBE0F901F901895F9
:101080008081F4CF1F920F920FB60F9211242F93ED
:101090003F934F935F936F937F938F939F93AF9300
:1010A000BF93EF93FF938091B900887F803609F456
:1010B0004CC008F03FC0883209F4A8C018F5803150
:1010C00009F49CC0B8F4882309F405C1883009F4F8
:1010D00095C0FF91EF91BF91AF919F918F917F91BB
:1010E0006F915F914F913F912F910F900FBE0F9095
:1010F0001F901895883109F489C0803251F7809388
:10110000B30215C0803409F4A6C048F48033B9F3A3
:101110008833F9F68093B3020E94EA00DACF803573
:1011200009F489C0883509F49EC0883491F60E947C
:10113000E000CFCF883909F494C038F5883729F01A
:1011400050F4883611F0803721F683E08093B402A2
:101150001092B20257C0883809F483C0803919F060
:10116000803809F0B6CF8091B202803208F079C0A1
:10117000E091B20281E08E0F8093B2028091BB00B9
:10118000F0E0EE56FD4F80833DC0803B39F0E0F447
:10119000803A09F485C0883A09F09BCF84E08093B7
:1011A000B4021092910210929002E0918003F091AB
:1011B000810309958091900281110FC081E0809395
:1011C00090021092700209C0803C09F482C0883CF1
:1011D00009F47FC0883B09F07CCFE091910281E067
:1011E0008E0F80939102F0E0E059FD4F8081809353
:1011F000BB00909191028091900231C08091BB021E
:101200008093BB0085EC8093BC0063CF9091BA02C1
:101210008091B9029817B8F58091B7029091B80201
:10122000E091BA0221E02E0F2093BA02E80FF92FC5
:10123000F11D8081E5CF2091B7023091B802E09195
:10124000BA0281E08E0F8093BA028091BB00E20F58
:10125000F32FF11D80839091BA028091B902981703
:1012600088F285E8D0CF2091B7023091B802E091A2
:10127000BA0281E08E0F8093BA028091BB00E20F28
:10128000F32FF11D80838091B602811150CF81E050
:101290008093B50284EA8093BC001092B40219CF07
:1012A0000E94EA008091B202803230F4E091B202F2
:1012B000F0E0EE56FD4F10826091B20270E0E091D6
:1012C0007E03F0917F0382E992E009951092B202C9
:1012D00000CF85ECE0CF1092B30229CFCF93DF93FC
:1012E000E1EEF2E01382128288EE93E0A0E0B0E03B
:1012F00084839583A683B78321E131E03183208302
:1013000025EC30E03587248724EC30E037872687CA
:1013100020EC30E0318B208B21EC30E0338B228BC2
:1013200022EC30E0358B248B26EC30E0378B268B9B
:10133000118E128E138E148EC2E8D3E01B821A8295
:101340008C839D83AE83BF8383E291E099838883FE
:1013500080E290E09D878C870E94BA109F878E87DD
:10136000188A198A1A8A80E290E00E94BA109C8B2F
:101370008B8B1D8A1E8A1F8A83E991E09D8F8C8F3B
:1013800081EB91E09F8F8E8F81EC90E099A388A3F1
:1013900085EC90E09BA38AA386E994E09DA38CA3AF
:1013A00086E494E09FA38EA38FE194E099A788A799
:1013B00088ED90E09BA78AA780EE90E09DA78CA780
:1013C0008AEE90E09FA78EA782EE94E090937F0331
:1013D00080937E0386ED94E0909381038093800355
:1013E000DF91CF910895789484B5836084BD85B5ED
:1013F000836085BD80916E00816080936E00C2E045
:10140000C0938100809181008160809381008091F0
:1014100080008160809380008091B100846080931F
:10142000B1008091B00081608093B0008091910004
:101430008360809391008091900081608093900000
:101440008091A10083608093A1008091A0008160C1
:101450008093A00086E880937A001092C1001092D9
:101460009203109293031092970310929803E091C5
:101470009E03F0919F030995E091F102F091F20231
:10148000C083E091ED02F091EE021082E091EF0254
:10149000F091F00288E080831092F902E091F50269
:1014A000F091F60286E08083E091F302F091F4027D
:1014B000808188698083E091F302F091F402808159
:1014C0008F7D80838CE791E00E948E0685EA91E013
:1014D0000E94860781EB91E00E9486078AEB91E0EB
:1014E0000E9486074AE06BEE7BEA83E090E00E9470
:1014F000290681E391E00E941C0680918100887F8B
:1015000081608093810062E088E00E94BE0160E01B
:1015100083E00E94BE0160E084E00E94BE0160E0C2
:1015200085E00E94BE0162E082E00E94960563E1D0
:1015300083E00E9496056FE784E00E94960560E0D4
:1015400086E00E9496056FE087E00E94960589E09C
:101550000E94D505682F606889E00E94960562E6C2
:101560008BE00E94960581E08093060169E170E0BE
:1015700080E090E00E94D3020AE010E081E10E9446
:101580009002C091CC02D091CD02C80FD91FD09348
:10159000CD02C093CC020150110981F764E170E0E3
:1015A00080E090E00E94D302CE016AE070E00E94E9
:1015B0006A107093CD026093CC028DEB91E00E9493
:1015C00086078091CC029091CD020E94880782E02C
:1015D0000E94D505682F6D7F82E00E94960561E02C
:1015E00086E00E94650124E6222E38E7332ECCE8FF
:1015F000DEEB15EA03E0412C512C40EA642E40E476
:10160000742E85E00E943C01019709F0A9C284E094
:101610000E943C01019709F0A3C283E00E943C01B3
:10162000019709F09DC28091D6029091D702019650
:101630009093D7028093D602029744F00E94BF0590
:101640000E949C061092D7021092D602809104014B
:10165000909105019C012F5F3F4F3093050120932E
:1016600004010B970CF4CFC162E082E00E94960562
:1016700066E081E00E949605DD24D394D0920601B5
:1016800064E170E080E090E00E94D30288EC91E099
:101690000E948E06E090CC02F090CD0281E10E9483
:1016A0009002B701681B790B072E000C880B990B71
:1016B0000E94430F23E333E343E550E40E94F80F15
:1016C00020E030EC4FE754E40E94A00E20E030E030
:1016D00040E251E40E94A00E2AE037ED43EA5BE3CA
:1016E0000E94A00E6093C8027093C9028093CA0240
:1016F0009093CB0282EF91E00E9486076091C8022E
:101700007091C9028091CA029091CB0242E00E947E
:10171000AA068090C8029090C902A090CA02B09018
:10172000CB022AE939E949E15EE3C501B4010E942F
:10173000F30F181614F4D092D1022DEC3CEC4CECC3
:101740005DE3C501B4010E949B0E87FD1092D1029A
:101750008FEF91E00E9486078091D10290E00E9475
:1017600088072DEC3CEC4CE050EC6091C802709185
:10177000C9028091CA029091CB020E949B0E881FE1
:101780008827881F8093D3020093060165E070E0EC
:1017900080E090E00E94D3028AE10E949002BC01A6
:1017A000990F880B990B0E94430F2DEC3CEC4CE8F1
:1017B0005FE30E94F80F20E030EC4FE754E40E9412
:1017C000A00E20E030E048E452E40E94F80F60935D
:1017D00000017093010180930201909303018CE05A
:1017E00092E00E9486076091000170910101809152
:1017F00002019091030142E00E94AA0686E192E074
:101800000E948E0661E083E00E94960560E084E01D
:101810000E9496054092C4025092C5026092C60290
:101820007092C7021092C0021092C1021092C202BE
:101830001092C302C12CD12C7601C3946FEF6C0DB2
:1018400085E00E94960565E070E080E090E00E94EF
:10185000D3028AE10E949002BC01990F880B990B78
:101860000E94430F2DEC3CEC4CE85FE30E94F80F24
:1018700020E030EC4FE754E40E94A00E9B01AC0145
:101880006AE979E989E79FE30E942E0E2AE939E99E
:1018900049E15EE30E94A00E6093BC027093BD021A
:1018A0008093BE029093BF0288E192E00E94860777
:1018B0004AE0C701B6010E94290683E192E00E9436
:1018C00086076091BC027091BD028091BE0290912A
:1018D000BF0243E00E94AA0686E192E00E948E06C3
:1018E0008090BC029090BD02A090BE02B090BF025A
:1018F0002091C4023091C5024091C6025091C702A6
:10190000C501B4010E949B0E87FF08C08092C402EB
:101910009092C502A092C602B092C7022091C00266
:101920003091C1024091C2025091C302C501B4017D
:101930000E94F30F181644F48092C0029092C102E4
:10194000A092C202B092C3028FEFC81AD80AE80A66
:10195000F80A88E0C816D104E104F10409F06ECF5A
:101960008FE192E00E9486076091C4027091C502E7
:101970008091C6029091C70243E00E94AA0687E2C6
:1019800092E00E9486076091C0027091C10280912E
:10199000C2029091C30243E00E94AA0683E392E050
:1019A0000E9486072091C4023091C5024091C60270
:1019B0005091C7026091C0027091C1028091C20231
:1019C0009091C3020E942E0E43E00E94AA0686E177
:1019D00092E00E948E0663E183E00E9496056FE725
:1019E00084E00E9496058FE392E00E948E0683E3D6
:1019F00091E00E948E0660EC82E00E9496051092B3
:101A00000501109204018091D302882321F01092E5
:101A1000D4021092D202E090D10280900001909006
:101A20000101A0900201B0900301F090CE02EE20DF
:101A300009F4D0C023E333E343EB51E4C501B4011F
:101A40000E94F30F181614F060E0F11061E08DE0D1
:101A50000E94650123E333E343EB51E4C501B40184
:101A60000E94F30F18160CF0B3C02AE939E949ECCB
:101A700051E4C501B4010E94F30F18161CF0FF20B9
:101A800009F4A6C061E08CE00E9465012AE939E909
:101A900049EC51E4C501B4010E94F30F18161CF47F
:101AA00061E0F11001C060E08BE00E946501DD247F
:101AB000D394FD24F092CE02EE2021F00E94BF05C7
:101AC000D092D0028091D002882351F0E11008C05A
:101AD0008091040190910501892B11F40E949C06CC
:101AE00082E3E82EF12C9091D5028091CF028917E4
:101AF00018F48F5F8093CF028091CF02981718F46B
:101B000081508093CF029091D4028091D2028917A4
:101B100018F48F5F8093D2028091D202981718F444
:101B200081508093D2026091CF0270E089E00E94E0
:101B3000FA016091D20270E08AE00E94FA016AE044
:101B400070E080E090E00E94D30281E0E81AF108A2
:101B500051F68091D002811179CD0E94080451CDB7
:101B600085E00E943C01892B41F184E00E943C0108
:101B7000892B21F4C093D502C093D40283E00E9444
:101B80003C01892B21F42092D5023092D40210928C
:101B9000D7021092D60288E00E943C01892B91F076
:101BA0008091D30281110EC061E084E10E94650141
:101BB00060E085E10E94650149CDD093D502109384
:101BC000D402D3CF60E084E10E94650161E0F1CFEF
:101BD00060E059CF2DEC3CEC40EC51E4C501B40180
:101BE0000E94F30F61E018160CF060E08BE00E9499
:101BF00065012DEC3CEC44EB51E4C501B4010E94BD
:101C0000F30F61E018160CF060E08CE00E946501B3
:101C100020E030E048EA51E4C501B4010E94F30F2E
:101C2000181614F060E0F11061E08DE03ECF83E221
:101C300091E090938303809382038091900390912D
:101C40009103009711F00E94561180919503909195
:101C50009603009711F00C94561108955058BB2725
:101C6000AA270E94460E0C94B90F0E94AB0F38F0C1
:101C70000E94B20F20F039F49F3F19F426F40C941F
:101C8000A80F0EF4E095E7FB0C94A20FE92F0E9439
:101C9000CA0F58F3BA17620773078407950720F035
:101CA00079F4A6F50C94EC0F0EF4E0950B2EBA2FF8
:101CB000A02D0B01B90190010C01CA01A001112452
:101CC000FF27591B99F0593F50F4503E68F11A16FE
:101CD000F040A22F232F342F4427585FF3CF46958F
:101CE00037952795A795F0405395C9F77EF41F16B1
:101CF000BA0B620B730B840BBAF09150A1F0FF0F7B
:101D0000BB1F661F771F881FC2F70EC0BA0F621F66
:101D1000731F841F48F4879577956795B795F79556
:101D20009E3F08F0B0CF9395880F08F09927EE0FEB
:101D30009795879508950E947E0F08F481E0089595
:101D40000E94B40E0C94B90F0E94B20F58F00E947A
:101D5000AB0F40F029F45F3F29F00C94A20F511112
:101D60000C94ED0F0C94A80F0E94CA0F68F39923EE
:101D7000B1F3552391F3951B550BBB27AA27621787
:101D80007307840738F09F5F5F4F220F331F441F94
:101D9000AA1FA9F335D00E2E3AF0E0E832D09150C8
:101DA0005040E695001CCAF72BD0FE2F29D0660FB5
:101DB000771F881FBB1F261737074807AB07B0E8F8
:101DC00009F0BB0B802DBF01FF2793585F4F3AF0FE
:101DD0009E3F510578F00C94A20F0C94ED0F5F3FDD
:101DE000E4F3983ED4F3869577956795B795F79584
:101DF0009F5FC9F7880F911D9695879597F908956C
:101E0000E1E0660F771F881FBB1F62177307840707
:101E1000BA0720F0621B730B840BBA0BEE1F88F716
:101E2000E09508950E94D20F88F09F5798F0B92F3F
:101E30009927B751B0F0E1F0660F771F881F991FFF
:101E40001AF0BA95C9F714C0B13091F00E94EC0FA6
:101E5000B1E008950C94EC0F672F782F8827B85FB6
:101E600039F0B93FCCF3869577956795B395D9F757
:101E70003EF490958095709561957F4F8F4F9F4F61
:101E80000895E89409C097FB3EF49095809570956D
:101E900061957F4F8F4F9F4F9923A9F0F92F96E9B6
:101EA000BB279395F695879577956795B795F1112B
:101EB000F8CFFAF4BB0F11F460FF1BC06F5F7F4FC8
:101EC0008F4F9F4F16C0882311F096E911C07723DA
:101ED00021F09EE8872F762F05C0662371F096E8E3
:101EE000862F70E060E02AF09A95660F771F881FB2
:101EF000DAF7880F9695879597F90895990F000856
:101F0000550FAA0BE0E8FEEF16161706E807F907CB
:101F1000C0F012161306E407F50798F0621B730B66
:101F2000840B950B39F40A2661F0232B242B252BE7
:101F300021F408950A2609F4A140A6958FEF811D8A
:101F4000811D089597F99F6780E870E060E008952B
:101F50009FEF80EC089500240A94161617061806C1
:101F60000906089500240A9412161306140605069D
:101F70000895092E0394000C11F4882352F0BB0F2E
:101F800040F4BF2B11F460FF04C06F5F7F4F8F4F91
:101F90009F4F089557FD9058440F551F59F05F3FCC
:101FA00071F04795880F97FB991F61F09F3F79F07B
:101FB00087950895121613061406551FF2CF4695FD
:101FC000F1DF08C0161617061806991FF1CF86957F
:101FD0007105610508940895E894BB276627772763
:101FE000CB0197F908950E947E0F08F48FEF0895B2
:101FF0000E940B100C94B90F0E94AB0F38F00E9496
:10200000B20F20F0952311F00C94A20F0C94A80F9E
:1020100011240C94ED0F0E94CA0F70F3959FC1F329
:10202000950F50E0551F629FF001729FBB27F00D86
:10203000B11D639FAA27F00DB11DAA1F649F6627DB
:10204000B00DA11D661F829F2227B00DA11D621F2A
:10205000739FB00DA11D621F839FA00D611D221FE4
:10206000749F3327A00D611D231F849F600D211DC8
:10207000822F762F6A2F11249F5750409AF0F1F04B
:1020800088234AF0EE0FFF1FBB1F661F771F881FB4
:1020900091505040A9F79E3F510580F00C94A20F3B
:1020A0000C94ED0F5F3FE4F3983ED4F3869577955B
:1020B0006795B795F795E7959F5FC1F7FE2B880F5A
:1020C000911D9695879597F908950E947E0F880B2C
:1020D000990B089597FB072E16F4009407D077FD0F
:1020E00009D00E94A61007FC05D03EF4909581957A
:1020F0009F4F0895709561957F4F0895A1E21A2E24
:10210000AA1BBB1BFD010DC0AA1FBB1FEE1FFF1F9B
:10211000A217B307E407F50720F0A21BB30BE40BEB
:10212000F50B661F771F881F991F1A9469F7609532
:102130007095809590959B01AC01BD01CF010895EC
:10214000EE0FFF1F0590F491E02D0994AA1BBB1B15
:1021500051E107C0AA1FBB1FA617B70710F0A61BA7
:10216000B70B881F991F5A95A9F780959095BC01C8
:10217000CD0108950F931F93CF93DF938230910584
:1021800010F482E090E0E091B403F091B50330E008
:1021900020E0B0E0A0E0309799F42115310509F472
:1021A0004AC0281B390B24303105D8F58A819B8120
:1021B0006115710589F1FB0193838283FE0111C0D2
:1021C000408151810281138148175907E0F0481777
:1021D000590799F4109761F012960C931297139681
:1021E0001C933296CF01DF91CF911F910F910895EB
:1021F0000093B4031093B503F4CF2115310551F0CA
:102200004217530738F0A901DB019A01BD01DF0134
:10221000F801C1CFEF01F9CF9093B5038093B403D8
:10222000CDCFFE01E20FF31F81939193225031092C
:1022300039832883D7CF2091B2033091B303232B66
:1022400041F42091090130910A013093B3032093A6
:10225000B20320910701309108012115310541F4A5
:102260002DB73EB740910B0150910C01241B350B4B
:10227000E091B203F091B303E217F307A0F42E1B31
:102280003F0B2817390778F0AC014E5F5F4F2417DA
:10229000350748F04E0F5F1F5093B3034093B203CE
:1022A000819391939FCFF0E0E0E09CCFCF93DF93B9
:1022B0000097E9F0FC01329713821282A091B403D7
:1022C000B091B503ED0130E020E01097A1F420813A
:1022D0003181820F931F2091B2033091B3032817ED
:1022E000390709F061C0F093B303E093B203DF91C3
:1022F000CF910895EA01CE17DF07E8F54A815B81A7
:102300009E0141155105B1F7E901FB83EA8349912B
:102310005991C40FD51FEC17FD0761F4808191819D
:102320000296840F951FE9019983888382819381A6
:102330009B838A83F0E0E0E012968D919C91139745
:102340000097B9F52D913C911197CD010296820F1E
:10235000931F2091B2033091B3032817390739F640
:10236000309751F51092B5031092B403B093B303B4
:10237000A093B203BCCFD383C28340815181840F29
:10238000951FC817D90761F44E5F5F4F8881998107
:10239000480F591F518340838A819B819383828395
:1023A0002115310509F0B0CFF093B503E093B403E4
:1023B0009ECFFD01DC01C0CF13821282D7CF10E087
:1023C000C6E9D0E004C0FE010E94A0102196C739E2
:0823D000D107C9F7F894FFCF13
:1023D80000000C420A00010000B603800000000063
:1023E800009B0305033203E803630341035503001D
:1023F80000000065053405BC050D05F00023050E39
:10240800050D0A0073657420626174746572792D14
:10241800696320746F2073687574646F776E2D6DAF
:102428006F64652028656E657267792073617669C7
:102438006E67292C20676F6F646E69676874210066
:102448006E616E00696E66006F7666002323232333
:102458002323232323232323232323232323232344
:102468002323232323232323232323232323232334
:1024780023232323005374617274696E673A202002
:1024880000424248365032354B00207600494241DE
:10249800545F5A45524F3D002D2D2D2D2D2073741C
:1024A800617274206F66206379636C6963206D655F
:1024B80061737572656D656E74202D2D2D2D2D2D12
:1024C8002D00495F4348475F42525553483D0041FC
:1024D800202D3E204348415247453A00555F504120
:1024E800434B203D200056005563656C6C5F0055DA
:1024F800636D696E3D200056202F2055636D61780D
:102508003D200056202F2064656C74613D20002D0D
:102518002D2D2D2D2D20656E64206F662063796327
:102528006C6963206D6561737572656D656E742085
:0A2538002D2D2D2D2D2D2D2D000031
:00000001FF
